{
  "_format": "hh-sol-artifact-1",
  "contractName": "ReentrancyAttacker",
  "sourceName": "contracts/ReentrancyAttacker.sol",
  "abi": [
    {
      "inputs": [
        {
          "internalType": "address",
          "name": "_target",
          "type": "address"
        }
      ],
      "stateMutability": "nonpayable",
      "type": "constructor"
    },
    {
      "inputs": [],
      "name": "attack",
      "outputs": [],
      "stateMutability": "nonpayable",
      "type": "function"
    },
    {
      "inputs": [],
      "name": "attackMode",
      "outputs": [
        {
          "internalType": "bool",
          "name": "",
          "type": "bool"
        }
      ],
      "stateMutability": "view",
      "type": "function"
    },
    {
      "inputs": [],
      "name": "registerKey",
      "outputs": [],
      "stateMutability": "payable",
      "type": "function"
    },
    {
      "inputs": [],
      "name": "revokeKey",
      "outputs": [],
      "stateMutability": "nonpayable",
      "type": "function"
    },
    {
      "inputs": [],
      "name": "target",
      "outputs": [
        {
          "internalType": "contract IAdvancedPGPKeyServer",
          "name": "",
          "type": "address"
        }
      ],
      "stateMutability": "view",
      "type": "function"
    },
    {
      "stateMutability": "payable",
      "type": "receive"
    }
  ],
  "bytecode": "0x60806040526000805460ff60a01b1916905534801561001d57600080fd5b506040516103be3803806103be83398101604081905261003c91610061565b600080546001600160a01b0319166001600160a01b0392909216919091179055610091565b60006020828403121561007357600080fd5b81516001600160a01b038116811461008a57600080fd5b9392505050565b61031e806100a06000396000f3fe60806040526004361061004e5760003560e01c80634012c2fa146100c657806369021a5f146100fc5780639e5faafc14610111578063a1f21dc114610126578063d4b839921461012e57600080fd5b366100c157600054600160a01b900460ff16156100bf57600080546040805163bed9d86160e01b815290516001600160a01b039092169263bed9d8619260048084019382900301818387803b1580156100a657600080fd5b505af11580156100ba573d6000803e3d6000fd5b505050505b005b600080fd5b3480156100d257600080fd5b506000546100e790600160a01b900460ff1681565b60405190151581526020015b60405180910390f35b34801561010857600080fd5b506100bf610166565b34801561011d57600080fd5b506100bf6101c1565b6100bf610212565b34801561013a57600080fd5b5060005461014e906001600160a01b031681565b6040516001600160a01b0390911681526020016100f3565b60008054604080516369021a5f60e01b815290516001600160a01b03909216926369021a5f9260048084019382900301818387803b1580156101a757600080fd5b505af11580156101bb573d6000803e3d6000fd5b50505050565b6000805460ff60a01b198116600160a01b1782556040805163bed9d86160e01b815290516001600160a01b039092169263bed9d8619260048084019382900301818387803b1580156101a757600080fd5b67016345785d8a00003410156102635760405162461bcd60e51b8152602060048201526012602482015271496e73756666696369656e74207374616b6560701b604482015260640160405180910390fd5b600054604051632540795d60e11b815260206004820152601360248201527261747461636b65722d7075626c69632d6b657960681b60448201526001600160a01b0390911690634a80f2ba9034906064016000604051808303818588803b1580156102cd57600080fd5b505af11580156102e1573d6000803e3d6000fd5b505050505056fea264697066735822122018a5e1497f20c2862aad87e19ceb29ea5603ff9caa48515f37820d13011f7cf564736f6c63430008140033",
  "linkReferences": {},
  "deployedLinkReferences": {}
}