{"contracts/AdvancedPGPKeyServer.sol":{"AdvancedPGPKeyServer":{"abi":[{"inputs":[],"stateMutability":"nonpayable","type":"constructor"},{"inputs":[],"name":"EnforcedPause","type":"error"},{"inputs":[],"name":"ExpectedPause","type":"error"},{"inputs":[{"internalType":"address","name":"owner","type":"address"}],"name":"OwnableInvalidOwner","type":"error"},{"inputs":[{"internalType":"address","name":"account","type":"address"}],"name":"OwnableUnauthorizedAccount","type":"error"},{"inputs":[],"name":"ReentrancyGuardReentrantCall","type":"error"},{"anonymous":false,"inputs":[{"indexed":true,"internalType":"address","name":"attester","type":"address"},{"indexed":true,"internalType":"address","name":"keyOwner","type":"address"}],"name":"AttestationMade","type":"event"},{"anonymous":false,"inputs":[{"indexed":true,"internalType":"address","name":"attester","type":"address"},{"indexed":true,"internalType":"address","name":"keyOwner","type":"address"}],"name":"AttestationRevoked","type":"event"},{"anonymous":false,"inputs":[{"indexed":true,"internalType":"address","name":"user","type":"address"},{"indexed":false,"internalType":"string","name":"publicKey","type":"string"}],"name":"KeyRegistered","type":"event"},{"anonymous":false,"inputs":[{"indexed":true,"internalType":"address","name":"user","type":"address"}],"name":"KeyRevoked","type":"event"},{"anonymous":false,"inputs":[{"indexed":false,"internalType":"uint256","name":"newMinStake","type":"uint256"}],"name":"MinStakeUpdated","type":"event"},{"anonymous":false,"inputs":[{"indexed":true,"internalType":"address","name":"previousOwner","type":"address"},{"indexed":true,"internalType":"address","name":"newOwner","type":"address"}],"name":"OwnershipTransferred","type":"event"},{"anonymous":false,"inputs":[{"indexed":false,"internalType":"address","name":"account","type":"address"}],"name":"Paused","type":"event"},{"anonymous":false,"inputs":[{"indexed":true,"internalType":"address","name":"user","type":"address"},{"indexed":false,"internalType":"uint256","name":"amount","type":"uint256"}],"name":"StakeWithdrawn","type":"event"},{"anonymous":false,"inputs":[{"indexed":false,"internalType":"uint256","name":"newPeriod","type":"uint256"},{"indexed":false,"internalType":"uint256","name":"newPercentage","type":"uint256"}],"name":"TrustDecayUpdated","type":"event"},{"anonymous":false,"inputs":[{"indexed":true,"internalType":"address","name":"user","type":"address"},{"indexed":false,"internalType":"uint256","name":"newScore","type":"uint256"}],"name":"TrustScoreUpdated","type":"event"},{"anonymous":false,"inputs":[{"indexed":false,"internalType":"address","name":"account","type":"address"}],"name":"Unpaused","type":"event"},{"inputs":[],"name":"ATTESTATION_COOLDOWN","outputs":[{"internalType":"uint256","name":"","type":"uint256"}],"stateMutability":"view","type":"function"},{"inputs":[],"name":"MAX_ATTESTORS_PER_UPDATE","outputs":[{"internalType":"uint256","name":"","type":"uint256"}],"stateMutability":"view","type":"function"},{"inputs":[],"name":"MAX_TRUST_SCORE","outputs":[{"internalType":"uint256","name":"","type":"uint256"}],"stateMutability":"view","type":"function"},{"inputs":[],"name":"REVOCATION_PENALTY","outputs":[{"internalType":"uint256","name":"","type":"uint256"}],"stateMutability":"view","type":"function"},{"inputs":[{"internalType":"address","name":"_keyOwner","type":"address"}],"name":"attestKey","outputs":[],"stateMutability":"nonpayable","type":"function"},{"inputs":[{"internalType":"address","name":"_keyOwner","type":"address"}],"name":"getPublicKey","outputs":[{"internalType":"string","name":"","type":"string"}],"stateMutability":"view","type":"function"},{"inputs":[{"internalType":"address","name":"_keyOwner","type":"address"}],"name":"getTrustMetrics","outputs":[{"components":[{"internalType":"uint256","name":"totalWeight","type":"uint256"},{"internalType":"uint256","name":"recentActivityScore","type":"uint256"},{"internalType":"uint256","name":"longevityScore","type":"uint256"},{"internalType":"uint256","name":"diversityScore","type":"uint256"},{"internalType":"uint256","name":"reputationScore","type":"uint256"}],"internalType":"struct AdvancedPGPKeyServer.TrustMetrics","name":"","type":"tuple"}],"stateMutability":"view","type":"function"},{"inputs":[{"internalType":"address","name":"_keyOwner","type":"address"}],"name":"getTrustScore","outputs":[{"internalType":"uint256","name":"","type":"uint256"}],"stateMutability":"view","type":"function"},{"inputs":[{"internalType":"address","name":"","type":"address"}],"name":"keys","outputs":[{"internalType":"string","name":"publicKey","type":"string"},{"internalType":"uint256","name":"registrationTime","type":"uint256"},{"internalType":"bool","name":"isRevoked","type":"bool"},{"internalType":"uint256","name":"stake","type":"uint256"}],"stateMutability":"view","type":"function"},{"inputs":[],"name":"minStake","outputs":[{"internalType":"uint256","name":"","type":"uint256"}],"stateMutability":"view","type":"function"},{"inputs":[],"name":"owner","outputs":[{"internalType":"address","name":"","type":"address"}],"stateMutability":"view","type":"function"},{"inputs":[],"name":"pause","outputs":[],"stateMutability":"nonpayable","type":"function"},{"inputs":[],"name":"paused","outputs":[{"internalType":"bool","name":"","type":"bool"}],"stateMutability":"view","type":"function"},{"inputs":[{"internalType":"string","name":"_publicKey","type":"string"}],"name":"registerKey","outputs":[],"stateMutability":"payable","type":"function"},{"inputs":[],"name":"renounceOwnership","outputs":[],"stateMutability":"nonpayable","type":"function"},{"inputs":[{"internalType":"address","name":"_keyOwner","type":"address"}],"name":"revokeAttestation","outputs":[],"stateMutability":"nonpayable","type":"function"},{"inputs":[],"name":"revokeKey","outputs":[],"stateMutability":"nonpayable","type":"function"},{"inputs":[{"internalType":"address","name":"newOwner","type":"address"}],"name":"transferOwnership","outputs":[],"stateMutability":"nonpayable","type":"function"},{"inputs":[],"name":"trustDecayPercentage","outputs":[{"internalType":"uint256","name":"","type":"uint256"}],"stateMutability":"view","type":"function"},{"inputs":[],"name":"trustDecayPeriod","outputs":[{"internalType":"uint256","name":"","type":"uint256"}],"stateMutability":"view","type":"function"},{"inputs":[{"internalType":"address","name":"","type":"address"}],"name":"trustMetrics","outputs":[{"internalType":"uint256","name":"totalWeight","type":"uint256"},{"internalType":"uint256","name":"recentActivityScore","type":"uint256"},{"internalType":"uint256","name":"longevityScore","type":"uint256"},{"internalType":"uint256","name":"diversityScore","type":"uint256"},{"internalType":"uint256","name":"reputationScore","type":"uint256"}],"stateMutability":"view","type":"function"},{"inputs":[{"internalType":"address","name":"","type":"address"}],"name":"trustScores","outputs":[{"internalType":"uint256","name":"","type":"uint256"}],"stateMutability":"view","type":"function"},{"inputs":[],"name":"unpause","outputs":[],"stateMutability":"nonpayable","type":"function"},{"inputs":[{"internalType":"uint256","name":"_newMinStake","type":"uint256"}],"name":"updateMinStake","outputs":[],"stateMutability":"nonpayable","type":"function"},{"inputs":[{"internalType":"uint256","name":"_newPeriod","type":"uint256"},{"internalType":"uint256","name":"_newPercentage","type":"uint256"}],"name":"updateTrustDecay","outputs":[],"stateMutability":"nonpayable","type":"function"},{"inputs":[],"name":"withdrawFunds","outputs":[],"stateMutability":"nonpayable","type":"function"},{"inputs":[],"name":"withdrawStake","outputs":[],"stateMutability":"nonpayable","type":"function"}],"evm":{"bytecode":{"linkReferences":{},"object":"608060405267016345785d8a000060055562278d00600655600560075534801561002857600080fd5b506001600055338061005457604051631e4fbdf760e01b81526000600482015260240160405180910390fd5b61005d81610070565b506001805460ff60a01b191690556100c2565b600180546001600160a01b038381166001600160a01b0319831681179093556040519116919082907f8be0079c531659141344cd1fd0a4f28419497f9722a3daafe3b4186f6b6457e090600090a35050565b611b2c806100d16000396000f3fe60806040526004361061019c5760003560e01c806374c8d377116100ec578063a28fbaaf1161008a578063bed9d86111610064578063bed9d861146104f0578063d93bbf2814610505578063f2fde38b1461051c578063f7907c271461053c57600080fd5b8063a28fbaaf146104c5578063a330c37d146104da578063a3ea156d146104c557600080fd5b8063857cdbb8116100c6578063857cdbb8146104305780638cdb442f1461045d5780638da5cb5b1461047d5780639ab0dca5146104a557600080fd5b806374c8d377146103e55780638137e421146103fb5780638456cb591461041b57600080fd5b80634a80f2ba11610159578063670d14b211610133578063670d14b21461032957806369021a5f146103595780636d7d976c1461036e578063715018a6146103d057600080fd5b80634a80f2ba146102b65780635c975abb146102c95780635e09eea1146102f357600080fd5b806312df0fc4146101a157806324600fc3146101e1578063375b3c0a146101f85780633964e14b1461020e5780633f4ba83a1461022e57806340c35a8814610243575b600080fd5b3480156101ad57600080fd5b506101ce6101bc366004611721565b60046020526000908152604090205481565b6040519081526020015b60405180910390f35b3480156101ed57600080fd5b506101f6610552565b005b34801561020457600080fd5b506101ce60055481565b34801561021a57600080fd5b506101f6610229366004611721565b610596565b34801561023a57600080fd5b506101f6610811565b34801561024f57600080fd5b5061028e61025e366004611721565b60036020819052600091825260409091208054600182015460028301549383015460049093015491939092909185565b604080519586526020860194909452928401919091526060830152608082015260a0016101d8565b6101f66102c4366004611767565b610823565b3480156102d557600080fd5b50600154600160a01b900460ff1660405190151581526020016101d8565b3480156102ff57600080fd5b506101ce61030e366004611721565b6001600160a01b031660009081526004602052604090205490565b34801561033557600080fd5b50610349610344366004611721565b610954565b6040516101d8949392919061185e565b34801561036557600080fd5b506101f6610a0a565b34801561037a57600080fd5b5061038e610389366004611721565b610b0e565b6040516101d89190600060a082019050825182526020830151602083015260408301516040830152606083015160608301526080830151608083015292915050565b3480156103dc57600080fd5b506101f6610b97565b3480156103f157600080fd5b506101ce6103e881565b34801561040757600080fd5b506101f661041636600461188d565b610ba9565b34801561042757600080fd5b506101f6610c54565b34801561043c57600080fd5b5061045061044b366004611721565b610c64565b6040516101d891906118af565b34801561046957600080fd5b506101f66104783660046118c2565b610d4c565b34801561048957600080fd5b506001546040516001600160a01b0390911681526020016101d8565b3480156104b157600080fd5b506101f66104c0366004611721565b610d8f565b3480156104d157600080fd5b506101ce606481565b3480156104e657600080fd5b506101ce60065481565b3480156104fc57600080fd5b506101f6610f35565b34801561051157600080fd5b506101ce6201518081565b34801561052857600080fd5b506101f6610537366004611721565b611093565b34801561054857600080fd5b506101ce60075481565b61055a6110ce565b6001546040516001600160a01b03909116904780156108fc02916000818181858888f19350505050158015610593573d6000803e3d6000fd5b50565b6001600160a01b03811660009081526002602052604081208054839291906105bd906118db565b9050116106065760405162461bcd60e51b815260206004820152601260248201527112d95e481b9bdd081c9959da5cdd195c995960721b60448201526064015b60405180910390fd5b6001600160a01b0381166000908152600260208190526040909120015460ff16156106435760405162461bcd60e51b81526004016105fd90611915565b61064b6110fb565b610653611125565b6001600160a01b03821633036106a35760405162461bcd60e51b815260206004820152601560248201527443616e6e6f7420617474657374206f776e206b657960581b60448201526064016105fd565b3360009081526002602090815260408083206001600160a01b038616845260040190915290205442906106da906201518090611953565b106107275760405162461bcd60e51b815260206004820152601760248201527f4174746573746174696f6e206f6e20636f6f6c646f776e00000000000000000060448201526064016105fd565b600061073233611150565b60408051606081018252428152602080820184815260008385018181526001600160a01b038a1682526002808552868320338085526004820187529784209651875593516001808801919091559151958101805460ff1916961515969096179095559383526005909101805493840181558152200180546001600160a01b031916909117905590506107c383611188565b6107cc83611486565b6040516001600160a01b0384169033907f15aa99ffc89a72fd4afe6d624c4f5663ea71125418e7a50dcba511daefc818ed90600090a35061080d6001600055565b5050565b6108196110ce565b61082161160d565b565b61082b6110fb565b610833611125565b336000908152600260205260409020805461084d906118db565b1590506108955760405162461bcd60e51b815260206004820152601660248201527512d95e48185b1c9958591e481c9959da5cdd195c995960521b60448201526064016105fd565b6005543410156108dc5760405162461bcd60e51b8152602060048201526012602482015271496e73756666696369656e74207374616b6560701b60448201526064016105fd565b3360009081526002602052604090206108f582826119bb565b50336000818152600260205260409081902042600182015534600390910155517ff2f2a79075cf529b3af4268b6b23a4d84fb14a9e28480515f2e7e01d12ca6172906109429084906118af565b60405180910390a26105936001600055565b60026020526000908152604090208054819061096f906118db565b80601f016020809104026020016040519081016040528092919081815260200182805461099b906118db565b80156109e85780601f106109bd576101008083540402835291602001916109e8565b820191906000526020600020905b8154815290600101906020018083116109cb57829003601f168201915b50505050600183015460028401546003909401549293909260ff909116915084565b3360008181526002602052604081208054610a24906118db565b905011610a685760405162461bcd60e51b815260206004820152601260248201527112d95e481b9bdd081c9959da5cdd195c995960721b60448201526064016105fd565b6001600160a01b0381166000908152600260208190526040909120015460ff1615610aa55760405162461bcd60e51b81526004016105fd90611915565b610aad6110fb565b610ab5611125565b336000818152600260208181526040808420909201805460ff1916600117905560049052808220829055517f2863dd5cdaeee3db3572cb06d2252df0b2ed5fd16b2fe921c187ba89519247d39190a26105936001600055565b610b406040518060a0016040528060008152602001600081526020016000815260200160008152602001600081525090565b506001600160a01b0316600090815260036020818152604092839020835160a08101855281548152600182015492810192909252600281015493820193909352908201546060820152600490910154608082015290565b610b9f6110ce565b6108216000611662565b610bb16110ce565b6064811115610c0d5760405162461bcd60e51b815260206004820152602260248201527f44656361792070657263656e746167652063616e6e6f74206578636565642031604482015261030360f41b60648201526084016105fd565b6006829055600781905560408051838152602081018390527fb4d1d08226a0457a6b10795eea8dbfac181279f2ad146290bdfb7377a9d2b1b5910160405180910390a15050565b610c5c6110ce565b6108216116b4565b6001600160a01b0381166000908152600260208190526040909120015460609060ff1615610ca45760405162461bcd60e51b81526004016105fd90611915565b6001600160a01b03821660009081526002602052604090208054610cc7906118db565b80601f0160208091040260200160405190810160405280929190818152602001828054610cf3906118db565b8015610d405780601f10610d1557610100808354040283529160200191610d40565b820191906000526020600020905b815481529060010190602001808311610d2357829003601f168201915b50505050509050919050565b610d546110ce565b60058190556040518181527f47ab46f2c8d4258304a2f5551c1cbdb6981be49631365d1ba7191288a73f39ef9060200160405180910390a150565b610d976110fb565b610d9f611125565b6001600160a01b0381166000908152600260209081526040808320338452600401909152902054610e125760405162461bcd60e51b815260206004820152601860248201527f4e6f206174746573746174696f6e20746f207265766f6b65000000000000000060448201526064016105fd565b6001600160a01b0381166000908152600260208181526040808420338552600401909152909120015460ff1615610e8b5760405162461bcd60e51b815260206004820152601b60248201527f4174746573746174696f6e20616c7265616479207265766f6b6564000000000060448201526064016105fd565b6001600160a01b038116600090815260026020818152604080842033855260049081018352818520909301805460ff19166001179055919052902054610ed390606490611a7b565b33600090815260046020526040902055610eec81611188565b610ef581611486565b6040516001600160a01b0382169033907f44db7dd4b6358b875795316c769b036d3566b0ee441dfee2f7f2bc858b67a3a090600090a36105936001600055565b610f3d6110fb565b610f45611125565b336000908152600260208190526040909120015460ff16610fbd5760405162461bcd60e51b815260206004820152602c60248201527f43616e206f6e6c79207769746864726177207374616b65206166746572206b6560448201526b3c903932bb37b1b0ba34b7b760a11b60648201526084016105fd565b33600090815260026020526040902060030154806110145760405162461bcd60e51b81526020600482015260146024820152734e6f207374616b6520746f20776974686472617760601b60448201526064016105fd565b336000818152600260205260408082206003018290555183156108fc0291849190818181858888f19350505050158015611052573d6000803e3d6000fd5b5060405181815233907f8108595eb6bad3acefa9da467d90cc2217686d5c5ac85460f8b7849c840645fc9060200160405180910390a2506108216001600055565b61109b6110ce565b6001600160a01b0381166110c557604051631e4fbdf760e01b8152600060048201526024016105fd565b61059381611662565b6001546001600160a01b031633146108215760405163118cdaa760e01b81523360048201526024016105fd565b60026000540361111e57604051633ee5aeb560e01b815260040160405180910390fd5b6002600055565b600154600160a01b900460ff16156108215760405163d93c066560e01b815260040160405180910390fd5b6001600160a01b0381166000908152600460205260408120546032611176600a83611a8e565b6111809082611a7b565b949350505050565b6001600160a01b03811660009081526003602081905260408083208381556001810184905591820183905580516064808252610ca0820190925291929182918160200160208202803683375050506001600160a01b03851660009081526002602052604081206005015491925090606411611204576064611221565b6001600160a01b0385166000908152600260205260409020600501545b905060005b818110156113db576001600160a01b038616600090815260026020526040812060050180548390811061125b5761125b611ab0565b60009182526020808320909101546001600160a01b038a81168452600280845260408086209290931680865260049092018452938290208251606081018452815481526001820154948101949094529093015460ff161515908201819052919250906113c657602081015187546112d29190611953565b8755805160009062015180906112e89042611a7b565b6112f29190611a8e565b9050601e81101561131d5761130881601e611a7b565b88600101546113179190611953565b60018901555b600160005b8881101561137757846001600160a01b031688828151811061134657611346611ab0565b60200260200101516001600160a01b0316036113655760009150611377565b8061136f81611ac6565b915050611322565b508080156113855750606488105b156113c3578387898151811061139d5761139d611ab0565b6001600160a01b0390921660209283029190910190910152876113bf81611ac6565b9850505b50505b505080806113d390611ac6565b915050611226565b506113e783600a611adf565b60038501556001600160a01b03851660009081526002602052604081206001015462015180906114179042611a7b565b6114219190611a8e565b905061016d81116114495761016d61143a826064611adf565b6114449190611a8e565b61144c565b60645b60028601556001600160a01b03861660009081526004602052604090205461147690600a90611a8e565b8560040181905550505050505050565b6001600160a01b0381166000908152600360208181526040808420815160a08101835281548152600182015493810184905260028083015493820184905294820154606082018190526004909201546080820181905290959490939192916114ed91611adf565b85516114f99190611953565b6115039190611953565b61150d9190611953565b6115179190611953565b905060006103e8821161152a578161152e565b6103e85b6001600160a01b0385166000908152600260205260408120600101549192506115578242611a7b565b90506000600654826115699190611a8e565b905060005b818110156115ae5760646007546115859190611a8e565b611590866064611adf565b61159a9190611a7b565b9450806115a681611ac6565b91505061156e565b506001600160a01b03871660008181526004602052604090819020869055517f16bf5e9c27e8fb3837dca08521258eaf9f8e21bb809d3dd7a1a4a00093c99a44906115fc9087815260200190565b60405180910390a250505050505050565b6116156116f7565b6001805460ff60a01b191690557f5db9ee0a495bf2e6ff9c91a7834c1ba4fdd244a5e8aa4e537bd38aeae4b073aa335b6040516001600160a01b03909116815260200160405180910390a1565b600180546001600160a01b038381166001600160a01b0319831681179093556040519116919082907f8be0079c531659141344cd1fd0a4f28419497f9722a3daafe3b4186f6b6457e090600090a35050565b6116bc611125565b6001805460ff60a01b1916600160a01b1790557f62e78cea01bee320cd4e420270b5ea74000d11b0c9f74754ebdbfc544b05a2586116453390565b600154600160a01b900460ff1661082157604051638dfc202b60e01b815260040160405180910390fd5b60006020828403121561173357600080fd5b81356001600160a01b038116811461174a57600080fd5b9392505050565b634e487b7160e01b600052604160045260246000fd5b60006020828403121561177957600080fd5b813567ffffffffffffffff8082111561179157600080fd5b818401915084601f8301126117a557600080fd5b8135818111156117b7576117b7611751565b604051601f8201601f19908116603f011681019083821181831017156117df576117df611751565b816040528281528760208487010111156117f857600080fd5b826020860160208301376000928101602001929092525095945050505050565b6000815180845260005b8181101561183e57602081850181015186830182015201611822565b506000602082860101526020601f19601f83011685010191505092915050565b6080815260006118716080830187611818565b6020830195909552509115156040830152606090910152919050565b600080604083850312156118a057600080fd5b50508035926020909101359150565b60208152600061174a6020830184611818565b6000602082840312156118d457600080fd5b5035919050565b600181811c908216806118ef57607f821691505b60208210810361190f57634e487b7160e01b600052602260045260246000fd5b50919050565b6020808252600e908201526d12d95e481a5cc81c995d9bdad95960921b604082015260600190565b634e487b7160e01b600052601160045260246000fd5b808201808211156119665761196661193d565b92915050565b601f8211156119b657600081815260208120601f850160051c810160208610156119935750805b601f850160051c820191505b818110156119b25782815560010161199f565b5050505b505050565b815167ffffffffffffffff8111156119d5576119d5611751565b6119e9816119e384546118db565b8461196c565b602080601f831160018114611a1e5760008415611a065750858301515b600019600386901b1c1916600185901b1785556119b2565b600085815260208120601f198616915b82811015611a4d57888601518255948401946001909101908401611a2e565b5085821015611a6b5787850151600019600388901b60f8161c191681555b5050505050600190811b01905550565b818103818111156119665761196661193d565b600082611aab57634e487b7160e01b600052601260045260246000fd5b500490565b634e487b7160e01b600052603260045260246000fd5b600060018201611ad857611ad861193d565b5060010190565b80820281158282048414176119665761196661193d56fea26469706673582212200cec69e58483dcd853588dcf1ff4007a94b029f8e0491908a806e3675df740c164736f6c63430008140033","opcodes":"PUSH1 0x80 PUSH1 0x40 MSTORE PUSH8 0x16345785D8A0000 PUSH1 0x5 SSTORE PUSH3 0x278D00 PUSH1 0x6 SSTORE PUSH1 0x5 PUSH1 0x7 SSTORE CALLVALUE DUP1 ISZERO PUSH2 0x28 JUMPI PUSH1 0x0 DUP1 REVERT JUMPDEST POP PUSH1 0x1 PUSH1 0x0 SSTORE CALLER DUP1 PUSH2 0x54 JUMPI PUSH1 0x40 MLOAD PUSH4 0x1E4FBDF7 PUSH1 0xE0 SHL DUP2 MSTORE PUSH1 0x0 PUSH1 0x4 DUP3 ADD MSTORE PUSH1 0x24 ADD PUSH1 0x40 MLOAD DUP1 SWAP2 SUB SWAP1 REVERT JUMPDEST PUSH2 0x5D DUP2 PUSH2 0x70 JUMP JUMPDEST POP PUSH1 0x1 DUP1 SLOAD PUSH1 0xFF PUSH1 0xA0 SHL NOT AND SWAP1 SSTORE PUSH2 0xC2 JUMP JUMPDEST PUSH1 0x1 DUP1 SLOAD PUSH1 0x1 PUSH1 0x1 PUSH1 0xA0 SHL SUB DUP4 DUP2 AND PUSH1 0x1 PUSH1 0x1 PUSH1 0xA0 SHL SUB NOT DUP4 AND DUP2 OR SWAP1 SWAP4 SSTORE PUSH1 0x40 MLOAD SWAP2 AND SWAP2 SWAP1 DUP3 SWAP1 PUSH32 0x8BE0079C531659141344CD1FD0A4F28419497F9722A3DAAFE3B4186F6B6457E0 SWAP1 PUSH1 0x0 SWAP1 LOG3 POP POP JUMP JUMPDEST PUSH2 0x1B2C DUP1 PUSH2 0xD1 PUSH1 0x0 CODECOPY PUSH1 0x0 RETURN INVALID PUSH1 0x80 PUSH1 0x40 MSTORE PUSH1 0x4 CALLDATASIZE LT PUSH2 0x19C JUMPI PUSH1 0x0 CALLDATALOAD PUSH1 0xE0 SHR DUP1 PUSH4 0x74C8D377 GT PUSH2 0xEC JUMPI DUP1 PUSH4 0xA28FBAAF GT PUSH2 0x8A JUMPI DUP1 PUSH4 0xBED9D861 GT PUSH2 0x64 JUMPI DUP1 PUSH4 0xBED9D861 EQ PUSH2 0x4F0 JUMPI DUP1 PUSH4 0xD93BBF28 EQ PUSH2 0x505 JUMPI DUP1 PUSH4 0xF2FDE38B EQ PUSH2 0x51C JUMPI DUP1 PUSH4 0xF7907C27 EQ PUSH2 0x53C JUMPI PUSH1 0x0 DUP1 REVERT JUMPDEST DUP1 PUSH4 0xA28FBAAF EQ PUSH2 0x4C5 JUMPI DUP1 PUSH4 0xA330C37D EQ PUSH2 0x4DA JUMPI DUP1 PUSH4 0xA3EA156D EQ PUSH2 0x4C5 JUMPI PUSH1 0x0 DUP1 REVERT JUMPDEST DUP1 PUSH4 0x857CDBB8 GT PUSH2 0xC6 JUMPI DUP1 PUSH4 0x857CDBB8 EQ PUSH2 0x430 JUMPI DUP1 PUSH4 0x8CDB442F EQ PUSH2 0x45D JUMPI DUP1 PUSH4 0x8DA5CB5B EQ PUSH2 0x47D JUMPI DUP1 PUSH4 0x9AB0DCA5 EQ PUSH2 0x4A5 JUMPI PUSH1 0x0 DUP1 REVERT JUMPDEST DUP1 PUSH4 0x74C8D377 EQ PUSH2 0x3E5 JUMPI DUP1 PUSH4 0x8137E421 EQ PUSH2 0x3FB JUMPI DUP1 PUSH4 0x8456CB59 EQ PUSH2 0x41B JUMPI PUSH1 0x0 DUP1 REVERT JUMPDEST DUP1 PUSH4 0x4A80F2BA GT PUSH2 0x159 JUMPI DUP1 PUSH4 0x670D14B2 GT PUSH2 0x133 JUMPI DUP1 PUSH4 0x670D14B2 EQ PUSH2 0x329 JUMPI DUP1 PUSH4 0x69021A5F EQ PUSH2 0x359 JUMPI DUP1 PUSH4 0x6D7D976C EQ PUSH2 0x36E JUMPI DUP1 PUSH4 0x715018A6 EQ PUSH2 0x3D0 JUMPI PUSH1 0x0 DUP1 REVERT JUMPDEST DUP1 PUSH4 0x4A80F2BA EQ PUSH2 0x2B6 JUMPI DUP1 PUSH4 0x5C975ABB EQ PUSH2 0x2C9 JUMPI DUP1 PUSH4 0x5E09EEA1 EQ PUSH2 0x2F3 JUMPI PUSH1 0x0 DUP1 REVERT JUMPDEST DUP1 PUSH4 0x12DF0FC4 EQ PUSH2 0x1A1 JUMPI DUP1 PUSH4 0x24600FC3 EQ PUSH2 0x1E1 JUMPI DUP1 PUSH4 0x375B3C0A EQ PUSH2 0x1F8 JUMPI DUP1 PUSH4 0x3964E14B EQ PUSH2 0x20E JUMPI DUP1 PUSH4 0x3F4BA83A EQ PUSH2 0x22E JUMPI DUP1 PUSH4 0x40C35A88 EQ PUSH2 0x243 JUMPI JUMPDEST PUSH1 0x0 DUP1 REVERT JUMPDEST CALLVALUE DUP1 ISZERO PUSH2 0x1AD JUMPI PUSH1 0x0 DUP1 REVERT JUMPDEST POP PUSH2 0x1CE PUSH2 0x1BC CALLDATASIZE PUSH1 0x4 PUSH2 0x1721 JUMP JUMPDEST PUSH1 0x4 PUSH1 0x20 MSTORE PUSH1 0x0 SWAP1 DUP2 MSTORE PUSH1 0x40 SWAP1 KECCAK256 SLOAD DUP2 JUMP JUMPDEST PUSH1 0x40 MLOAD SWAP1 DUP2 MSTORE PUSH1 0x20 ADD JUMPDEST PUSH1 0x40 MLOAD DUP1 SWAP2 SUB SWAP1 RETURN JUMPDEST CALLVALUE DUP1 ISZERO PUSH2 0x1ED JUMPI PUSH1 0x0 DUP1 REVERT JUMPDEST POP PUSH2 0x1F6 PUSH2 0x552 JUMP JUMPDEST STOP JUMPDEST CALLVALUE DUP1 ISZERO PUSH2 0x204 JUMPI PUSH1 0x0 DUP1 REVERT JUMPDEST POP PUSH2 0x1CE PUSH1 0x5 SLOAD DUP2 JUMP JUMPDEST CALLVALUE DUP1 ISZERO PUSH2 0x21A JUMPI PUSH1 0x0 DUP1 REVERT JUMPDEST POP PUSH2 0x1F6 PUSH2 0x229 CALLDATASIZE PUSH1 0x4 PUSH2 0x1721 JUMP JUMPDEST PUSH2 0x596 JUMP JUMPDEST CALLVALUE DUP1 ISZERO PUSH2 0x23A JUMPI PUSH1 0x0 DUP1 REVERT JUMPDEST POP PUSH2 0x1F6 PUSH2 0x811 JUMP JUMPDEST CALLVALUE DUP1 ISZERO PUSH2 0x24F JUMPI PUSH1 0x0 DUP1 REVERT JUMPDEST POP PUSH2 0x28E PUSH2 0x25E CALLDATASIZE PUSH1 0x4 PUSH2 0x1721 JUMP JUMPDEST PUSH1 0x3 PUSH1 0x20 DUP2 SWAP1 MSTORE PUSH1 0x0 SWAP2 DUP3 MSTORE PUSH1 0x40 SWAP1 SWAP2 KECCAK256 DUP1 SLOAD PUSH1 0x1 DUP3 ADD SLOAD PUSH1 0x2 DUP4 ADD SLOAD SWAP4 DUP4 ADD SLOAD PUSH1 0x4 SWAP1 SWAP4 ADD SLOAD SWAP2 SWAP4 SWAP1 SWAP3 SWAP1 SWAP2 DUP6 JUMP JUMPDEST PUSH1 0x40 DUP1 MLOAD SWAP6 DUP7 MSTORE PUSH1 0x20 DUP7 ADD SWAP5 SWAP1 SWAP5 MSTORE SWAP3 DUP5 ADD SWAP2 SWAP1 SWAP2 MSTORE PUSH1 0x60 DUP4 ADD MSTORE PUSH1 0x80 DUP3 ADD MSTORE PUSH1 0xA0 ADD PUSH2 0x1D8 JUMP JUMPDEST PUSH2 0x1F6 PUSH2 0x2C4 CALLDATASIZE PUSH1 0x4 PUSH2 0x1767 JUMP JUMPDEST PUSH2 0x823 JUMP JUMPDEST CALLVALUE DUP1 ISZERO PUSH2 0x2D5 JUMPI PUSH1 0x0 DUP1 REVERT JUMPDEST POP PUSH1 0x1 SLOAD PUSH1 0x1 PUSH1 0xA0 SHL SWAP1 DIV PUSH1 0xFF AND PUSH1 0x40 MLOAD SWAP1 ISZERO ISZERO DUP2 MSTORE PUSH1 0x20 ADD PUSH2 0x1D8 JUMP JUMPDEST CALLVALUE DUP1 ISZERO PUSH2 0x2FF JUMPI PUSH1 0x0 DUP1 REVERT JUMPDEST POP PUSH2 0x1CE PUSH2 0x30E CALLDATASIZE PUSH1 0x4 PUSH2 0x1721 JUMP JUMPDEST PUSH1 0x1 PUSH1 0x1 PUSH1 0xA0 SHL SUB AND PUSH1 0x0 SWAP1 DUP2 MSTORE PUSH1 0x4 PUSH1 0x20 MSTORE PUSH1 0x40 SWAP1 KECCAK256 SLOAD SWAP1 JUMP JUMPDEST CALLVALUE DUP1 ISZERO PUSH2 0x335 JUMPI PUSH1 0x0 DUP1 REVERT JUMPDEST POP PUSH2 0x349 PUSH2 0x344 CALLDATASIZE PUSH1 0x4 PUSH2 0x1721 JUMP JUMPDEST PUSH2 0x954 JUMP JUMPDEST PUSH1 0x40 MLOAD PUSH2 0x1D8 SWAP5 SWAP4 SWAP3 SWAP2 SWAP1 PUSH2 0x185E JUMP JUMPDEST CALLVALUE DUP1 ISZERO PUSH2 0x365 JUMPI PUSH1 0x0 DUP1 REVERT JUMPDEST POP PUSH2 0x1F6 PUSH2 0xA0A JUMP JUMPDEST CALLVALUE DUP1 ISZERO PUSH2 0x37A JUMPI PUSH1 0x0 DUP1 REVERT JUMPDEST POP PUSH2 0x38E PUSH2 0x389 CALLDATASIZE PUSH1 0x4 PUSH2 0x1721 JUMP JUMPDEST PUSH2 0xB0E JUMP JUMPDEST PUSH1 0x40 MLOAD PUSH2 0x1D8 SWAP2 SWAP1 PUSH1 0x0 PUSH1 0xA0 DUP3 ADD SWAP1 POP DUP3 MLOAD DUP3 MSTORE PUSH1 0x20 DUP4 ADD MLOAD PUSH1 0x20 DUP4 ADD MSTORE PUSH1 0x40 DUP4 ADD MLOAD PUSH1 0x40 DUP4 ADD MSTORE PUSH1 0x60 DUP4 ADD MLOAD PUSH1 0x60 DUP4 ADD MSTORE PUSH1 0x80 DUP4 ADD MLOAD PUSH1 0x80 DUP4 ADD MSTORE SWAP3 SWAP2 POP POP JUMP JUMPDEST CALLVALUE DUP1 ISZERO PUSH2 0x3DC JUMPI PUSH1 0x0 DUP1 REVERT JUMPDEST POP PUSH2 0x1F6 PUSH2 0xB97 JUMP JUMPDEST CALLVALUE DUP1 ISZERO PUSH2 0x3F1 JUMPI PUSH1 0x0 DUP1 REVERT JUMPDEST POP PUSH2 0x1CE PUSH2 0x3E8 DUP2 JUMP JUMPDEST CALLVALUE DUP1 ISZERO PUSH2 0x407 JUMPI PUSH1 0x0 DUP1 REVERT JUMPDEST POP PUSH2 0x1F6 PUSH2 0x416 CALLDATASIZE PUSH1 0x4 PUSH2 0x188D JUMP JUMPDEST PUSH2 0xBA9 JUMP JUMPDEST CALLVALUE DUP1 ISZERO PUSH2 0x427 JUMPI PUSH1 0x0 DUP1 REVERT JUMPDEST POP PUSH2 0x1F6 PUSH2 0xC54 JUMP JUMPDEST CALLVALUE DUP1 ISZERO PUSH2 0x43C JUMPI PUSH1 0x0 DUP1 REVERT JUMPDEST POP PUSH2 0x450 PUSH2 0x44B CALLDATASIZE PUSH1 0x4 PUSH2 0x1721 JUMP JUMPDEST PUSH2 0xC64 JUMP JUMPDEST PUSH1 0x40 MLOAD PUSH2 0x1D8 SWAP2 SWAP1 PUSH2 0x18AF JUMP JUMPDEST CALLVALUE DUP1 ISZERO PUSH2 0x469 JUMPI PUSH1 0x0 DUP1 REVERT JUMPDEST POP PUSH2 0x1F6 PUSH2 0x478 CALLDATASIZE PUSH1 0x4 PUSH2 0x18C2 JUMP JUMPDEST PUSH2 0xD4C JUMP JUMPDEST CALLVALUE DUP1 ISZERO PUSH2 0x489 JUMPI PUSH1 0x0 DUP1 REVERT JUMPDEST POP PUSH1 0x1 SLOAD PUSH1 0x40 MLOAD PUSH1 0x1 PUSH1 0x1 PUSH1 0xA0 SHL SUB SWAP1 SWAP2 AND DUP2 MSTORE PUSH1 0x20 ADD PUSH2 0x1D8 JUMP JUMPDEST CALLVALUE DUP1 ISZERO PUSH2 0x4B1 JUMPI PUSH1 0x0 DUP1 REVERT JUMPDEST POP PUSH2 0x1F6 PUSH2 0x4C0 CALLDATASIZE PUSH1 0x4 PUSH2 0x1721 JUMP JUMPDEST PUSH2 0xD8F JUMP JUMPDEST CALLVALUE DUP1 ISZERO PUSH2 0x4D1 JUMPI PUSH1 0x0 DUP1 REVERT JUMPDEST POP PUSH2 0x1CE PUSH1 0x64 DUP2 JUMP JUMPDEST CALLVALUE DUP1 ISZERO PUSH2 0x4E6 JUMPI PUSH1 0x0 DUP1 REVERT JUMPDEST POP PUSH2 0x1CE PUSH1 0x6 SLOAD DUP2 JUMP JUMPDEST CALLVALUE DUP1 ISZERO PUSH2 0x4FC JUMPI PUSH1 0x0 DUP1 REVERT JUMPDEST POP PUSH2 0x1F6 PUSH2 0xF35 JUMP JUMPDEST CALLVALUE DUP1 ISZERO PUSH2 0x511 JUMPI PUSH1 0x0 DUP1 REVERT JUMPDEST POP PUSH2 0x1CE PUSH3 0x15180 DUP2 JUMP JUMPDEST CALLVALUE DUP1 ISZERO PUSH2 0x528 JUMPI PUSH1 0x0 DUP1 REVERT JUMPDEST POP PUSH2 0x1F6 PUSH2 0x537 CALLDATASIZE PUSH1 0x4 PUSH2 0x1721 JUMP JUMPDEST PUSH2 0x1093 JUMP JUMPDEST CALLVALUE DUP1 ISZERO PUSH2 0x548 JUMPI PUSH1 0x0 DUP1 REVERT JUMPDEST POP PUSH2 0x1CE PUSH1 0x7 SLOAD DUP2 JUMP JUMPDEST PUSH2 0x55A PUSH2 0x10CE JUMP JUMPDEST PUSH1 0x1 SLOAD PUSH1 0x40 MLOAD PUSH1 0x1 PUSH1 0x1 PUSH1 0xA0 SHL SUB SWAP1 SWAP2 AND SWAP1 SELFBALANCE DUP1 ISZERO PUSH2 0x8FC MUL SWAP2 PUSH1 0x0 DUP2 DUP2 DUP2 DUP6 DUP9 DUP9 CALL SWAP4 POP POP POP POP ISZERO DUP1 ISZERO PUSH2 0x593 JUMPI RETURNDATASIZE PUSH1 0x0 DUP1 RETURNDATACOPY RETURNDATASIZE PUSH1 0x0 REVERT JUMPDEST POP JUMP JUMPDEST PUSH1 0x1 PUSH1 0x1 PUSH1 0xA0 SHL SUB DUP2 AND PUSH1 0x0 SWAP1 DUP2 MSTORE PUSH1 0x2 PUSH1 0x20 MSTORE PUSH1 0x40 DUP2 KECCAK256 DUP1 SLOAD DUP4 SWAP3 SWAP2 SWAP1 PUSH2 0x5BD SWAP1 PUSH2 0x18DB JUMP JUMPDEST SWAP1 POP GT PUSH2 0x606 JUMPI PUSH1 0x40 MLOAD PUSH3 0x461BCD PUSH1 0xE5 SHL DUP2 MSTORE PUSH1 0x20 PUSH1 0x4 DUP3 ADD MSTORE PUSH1 0x12 PUSH1 0x24 DUP3 ADD MSTORE PUSH18 0x12D95E481B9BDD081C9959DA5CDD195C9959 PUSH1 0x72 SHL PUSH1 0x44 DUP3 ADD MSTORE PUSH1 0x64 ADD JUMPDEST PUSH1 0x40 MLOAD DUP1 SWAP2 SUB SWAP1 REVERT JUMPDEST PUSH1 0x1 PUSH1 0x1 PUSH1 0xA0 SHL SUB DUP2 AND PUSH1 0x0 SWAP1 DUP2 MSTORE PUSH1 0x2 PUSH1 0x20 DUP2 SWAP1 MSTORE PUSH1 0x40 SWAP1 SWAP2 KECCAK256 ADD SLOAD PUSH1 0xFF AND ISZERO PUSH2 0x643 JUMPI PUSH1 0x40 MLOAD PUSH3 0x461BCD PUSH1 0xE5 SHL DUP2 MSTORE PUSH1 0x4 ADD PUSH2 0x5FD SWAP1 PUSH2 0x1915 JUMP JUMPDEST PUSH2 0x64B PUSH2 0x10FB JUMP JUMPDEST PUSH2 0x653 PUSH2 0x1125 JUMP JUMPDEST PUSH1 0x1 PUSH1 0x1 PUSH1 0xA0 SHL SUB DUP3 AND CALLER SUB PUSH2 0x6A3 JUMPI PUSH1 0x40 MLOAD PUSH3 0x461BCD PUSH1 0xE5 SHL DUP2 MSTORE PUSH1 0x20 PUSH1 0x4 DUP3 ADD MSTORE PUSH1 0x15 PUSH1 0x24 DUP3 ADD MSTORE PUSH21 0x43616E6E6F7420617474657374206F776E206B6579 PUSH1 0x58 SHL PUSH1 0x44 DUP3 ADD MSTORE PUSH1 0x64 ADD PUSH2 0x5FD JUMP JUMPDEST CALLER PUSH1 0x0 SWAP1 DUP2 MSTORE PUSH1 0x2 PUSH1 0x20 SWAP1 DUP2 MSTORE PUSH1 0x40 DUP1 DUP4 KECCAK256 PUSH1 0x1 PUSH1 0x1 PUSH1 0xA0 SHL SUB DUP7 AND DUP5 MSTORE PUSH1 0x4 ADD SWAP1 SWAP2 MSTORE SWAP1 KECCAK256 SLOAD TIMESTAMP SWAP1 PUSH2 0x6DA SWAP1 PUSH3 0x15180 SWAP1 PUSH2 0x1953 JUMP JUMPDEST LT PUSH2 0x727 JUMPI PUSH1 0x40 MLOAD PUSH3 0x461BCD PUSH1 0xE5 SHL DUP2 MSTORE PUSH1 0x20 PUSH1 0x4 DUP3 ADD MSTORE PUSH1 0x17 PUSH1 0x24 DUP3 ADD MSTORE PUSH32 0x4174746573746174696F6E206F6E20636F6F6C646F776E000000000000000000 PUSH1 0x44 DUP3 ADD MSTORE PUSH1 0x64 ADD PUSH2 0x5FD JUMP JUMPDEST PUSH1 0x0 PUSH2 0x732 CALLER PUSH2 0x1150 JUMP JUMPDEST PUSH1 0x40 DUP1 MLOAD PUSH1 0x60 DUP2 ADD DUP3 MSTORE TIMESTAMP DUP2 MSTORE PUSH1 0x20 DUP1 DUP3 ADD DUP5 DUP2 MSTORE PUSH1 0x0 DUP4 DUP6 ADD DUP2 DUP2 MSTORE PUSH1 0x1 PUSH1 0x1 PUSH1 0xA0 SHL SUB DUP11 AND DUP3 MSTORE PUSH1 0x2 DUP1 DUP6 MSTORE DUP7 DUP4 KECCAK256 CALLER DUP1 DUP6 MSTORE PUSH1 0x4 DUP3 ADD DUP8 MSTORE SWAP8 DUP5 KECCAK256 SWAP7 MLOAD DUP8 SSTORE SWAP4 MLOAD PUSH1 0x1 DUP1 DUP9 ADD SWAP2 SWAP1 SWAP2 SSTORE SWAP2 MLOAD SWAP6 DUP2 ADD DUP1 SLOAD PUSH1 0xFF NOT AND SWAP7 ISZERO ISZERO SWAP7 SWAP1 SWAP7 OR SWAP1 SWAP6 SSTORE SWAP4 DUP4 MSTORE PUSH1 0x5 SWAP1 SWAP2 ADD DUP1 SLOAD SWAP4 DUP5 ADD DUP2 SSTORE DUP2 MSTORE KECCAK256 ADD DUP1 SLOAD PUSH1 0x1 PUSH1 0x1 PUSH1 0xA0 SHL SUB NOT AND SWAP1 SWAP2 OR SWAP1 SSTORE SWAP1 POP PUSH2 0x7C3 DUP4 PUSH2 0x1188 JUMP JUMPDEST PUSH2 0x7CC DUP4 PUSH2 0x1486 JUMP JUMPDEST PUSH1 0x40 MLOAD PUSH1 0x1 PUSH1 0x1 PUSH1 0xA0 SHL SUB DUP5 AND SWAP1 CALLER SWAP1 PUSH32 0x15AA99FFC89A72FD4AFE6D624C4F5663EA71125418E7A50DCBA511DAEFC818ED SWAP1 PUSH1 0x0 SWAP1 LOG3 POP PUSH2 0x80D PUSH1 0x1 PUSH1 0x0 SSTORE JUMP JUMPDEST POP POP JUMP JUMPDEST PUSH2 0x819 PUSH2 0x10CE JUMP JUMPDEST PUSH2 0x821 PUSH2 0x160D JUMP JUMPDEST JUMP JUMPDEST PUSH2 0x82B PUSH2 0x10FB JUMP JUMPDEST PUSH2 0x833 PUSH2 0x1125 JUMP JUMPDEST CALLER PUSH1 0x0 SWAP1 DUP2 MSTORE PUSH1 0x2 PUSH1 0x20 MSTORE PUSH1 0x40 SWAP1 KECCAK256 DUP1 SLOAD PUSH2 0x84D SWAP1 PUSH2 0x18DB JUMP JUMPDEST ISZERO SWAP1 POP PUSH2 0x895 JUMPI PUSH1 0x40 MLOAD PUSH3 0x461BCD PUSH1 0xE5 SHL DUP2 MSTORE PUSH1 0x20 PUSH1 0x4 DUP3 ADD MSTORE PUSH1 0x16 PUSH1 0x24 DUP3 ADD MSTORE PUSH22 0x12D95E48185B1C9958591E481C9959DA5CDD195C9959 PUSH1 0x52 SHL PUSH1 0x44 DUP3 ADD MSTORE PUSH1 0x64 ADD PUSH2 0x5FD JUMP JUMPDEST PUSH1 0x5 SLOAD CALLVALUE LT ISZERO PUSH2 0x8DC JUMPI PUSH1 0x40 MLOAD PUSH3 0x461BCD PUSH1 0xE5 SHL DUP2 MSTORE PUSH1 0x20 PUSH1 0x4 DUP3 ADD MSTORE PUSH1 0x12 PUSH1 0x24 DUP3 ADD MSTORE PUSH18 0x496E73756666696369656E74207374616B65 PUSH1 0x70 SHL PUSH1 0x44 DUP3 ADD MSTORE PUSH1 0x64 ADD PUSH2 0x5FD JUMP JUMPDEST CALLER PUSH1 0x0 SWAP1 DUP2 MSTORE PUSH1 0x2 PUSH1 0x20 MSTORE PUSH1 0x40 SWAP1 KECCAK256 PUSH2 0x8F5 DUP3 DUP3 PUSH2 0x19BB JUMP JUMPDEST POP CALLER PUSH1 0x0 DUP2 DUP2 MSTORE PUSH1 0x2 PUSH1 0x20 MSTORE PUSH1 0x40 SWAP1 DUP2 SWAP1 KECCAK256 TIMESTAMP PUSH1 0x1 DUP3 ADD SSTORE CALLVALUE PUSH1 0x3 SWAP1 SWAP2 ADD SSTORE MLOAD PUSH32 0xF2F2A79075CF529B3AF4268B6B23A4D84FB14A9E28480515F2E7E01D12CA6172 SWAP1 PUSH2 0x942 SWAP1 DUP5 SWAP1 PUSH2 0x18AF JUMP JUMPDEST PUSH1 0x40 MLOAD DUP1 SWAP2 SUB SWAP1 LOG2 PUSH2 0x593 PUSH1 0x1 PUSH1 0x0 SSTORE JUMP JUMPDEST PUSH1 0x2 PUSH1 0x20 MSTORE PUSH1 0x0 SWAP1 DUP2 MSTORE PUSH1 0x40 SWAP1 KECCAK256 DUP1 SLOAD DUP2 SWAP1 PUSH2 0x96F SWAP1 PUSH2 0x18DB JUMP JUMPDEST DUP1 PUSH1 0x1F ADD PUSH1 0x20 DUP1 SWAP2 DIV MUL PUSH1 0x20 ADD PUSH1 0x40 MLOAD SWAP1 DUP2 ADD PUSH1 0x40 MSTORE DUP1 SWAP3 SWAP2 SWAP1 DUP2 DUP2 MSTORE PUSH1 0x20 ADD DUP3 DUP1 SLOAD PUSH2 0x99B SWAP1 PUSH2 0x18DB JUMP JUMPDEST DUP1 ISZERO PUSH2 0x9E8 JUMPI DUP1 PUSH1 0x1F LT PUSH2 0x9BD JUMPI PUSH2 0x100 DUP1 DUP4 SLOAD DIV MUL DUP4 MSTORE SWAP2 PUSH1 0x20 ADD SWAP2 PUSH2 0x9E8 JUMP JUMPDEST DUP3 ADD SWAP2 SWAP1 PUSH1 0x0 MSTORE PUSH1 0x20 PUSH1 0x0 KECCAK256 SWAP1 JUMPDEST DUP2 SLOAD DUP2 MSTORE SWAP1 PUSH1 0x1 ADD SWAP1 PUSH1 0x20 ADD DUP1 DUP4 GT PUSH2 0x9CB JUMPI DUP3 SWAP1 SUB PUSH1 0x1F AND DUP3 ADD SWAP2 JUMPDEST POP POP POP POP PUSH1 0x1 DUP4 ADD SLOAD PUSH1 0x2 DUP5 ADD SLOAD PUSH1 0x3 SWAP1 SWAP5 ADD SLOAD SWAP3 SWAP4 SWAP1 SWAP3 PUSH1 0xFF SWAP1 SWAP2 AND SWAP2 POP DUP5 JUMP JUMPDEST CALLER PUSH1 0x0 DUP2 DUP2 MSTORE PUSH1 0x2 PUSH1 0x20 MSTORE PUSH1 0x40 DUP2 KECCAK256 DUP1 SLOAD PUSH2 0xA24 SWAP1 PUSH2 0x18DB JUMP JUMPDEST SWAP1 POP GT PUSH2 0xA68 JUMPI PUSH1 0x40 MLOAD PUSH3 0x461BCD PUSH1 0xE5 SHL DUP2 MSTORE PUSH1 0x20 PUSH1 0x4 DUP3 ADD MSTORE PUSH1 0x12 PUSH1 0x24 DUP3 ADD MSTORE PUSH18 0x12D95E481B9BDD081C9959DA5CDD195C9959 PUSH1 0x72 SHL PUSH1 0x44 DUP3 ADD MSTORE PUSH1 0x64 ADD PUSH2 0x5FD JUMP JUMPDEST PUSH1 0x1 PUSH1 0x1 PUSH1 0xA0 SHL SUB DUP2 AND PUSH1 0x0 SWAP1 DUP2 MSTORE PUSH1 0x2 PUSH1 0x20 DUP2 SWAP1 MSTORE PUSH1 0x40 SWAP1 SWAP2 KECCAK256 ADD SLOAD PUSH1 0xFF AND ISZERO PUSH2 0xAA5 JUMPI PUSH1 0x40 MLOAD PUSH3 0x461BCD PUSH1 0xE5 SHL DUP2 MSTORE PUSH1 0x4 ADD PUSH2 0x5FD SWAP1 PUSH2 0x1915 JUMP JUMPDEST PUSH2 0xAAD PUSH2 0x10FB JUMP JUMPDEST PUSH2 0xAB5 PUSH2 0x1125 JUMP JUMPDEST CALLER PUSH1 0x0 DUP2 DUP2 MSTORE PUSH1 0x2 PUSH1 0x20 DUP2 DUP2 MSTORE PUSH1 0x40 DUP1 DUP5 KECCAK256 SWAP1 SWAP3 ADD DUP1 SLOAD PUSH1 0xFF NOT AND PUSH1 0x1 OR SWAP1 SSTORE PUSH1 0x4 SWAP1 MSTORE DUP1 DUP3 KECCAK256 DUP3 SWAP1 SSTORE MLOAD PUSH32 0x2863DD5CDAEEE3DB3572CB06D2252DF0B2ED5FD16B2FE921C187BA89519247D3 SWAP2 SWAP1 LOG2 PUSH2 0x593 PUSH1 0x1 PUSH1 0x0 SSTORE JUMP JUMPDEST PUSH2 0xB40 PUSH1 0x40 MLOAD DUP1 PUSH1 0xA0 ADD PUSH1 0x40 MSTORE DUP1 PUSH1 0x0 DUP2 MSTORE PUSH1 0x20 ADD PUSH1 0x0 DUP2 MSTORE PUSH1 0x20 ADD PUSH1 0x0 DUP2 MSTORE PUSH1 0x20 ADD PUSH1 0x0 DUP2 MSTORE PUSH1 0x20 ADD PUSH1 0x0 DUP2 MSTORE POP SWAP1 JUMP JUMPDEST POP PUSH1 0x1 PUSH1 0x1 PUSH1 0xA0 SHL SUB AND PUSH1 0x0 SWAP1 DUP2 MSTORE PUSH1 0x3 PUSH1 0x20 DUP2 DUP2 MSTORE PUSH1 0x40 SWAP3 DUP4 SWAP1 KECCAK256 DUP4 MLOAD PUSH1 0xA0 DUP2 ADD DUP6 MSTORE DUP2 SLOAD DUP2 MSTORE PUSH1 0x1 DUP3 ADD SLOAD SWAP3 DUP2 ADD SWAP3 SWAP1 SWAP3 MSTORE PUSH1 0x2 DUP2 ADD SLOAD SWAP4 DUP3 ADD SWAP4 SWAP1 SWAP4 MSTORE SWAP1 DUP3 ADD SLOAD PUSH1 0x60 DUP3 ADD MSTORE PUSH1 0x4 SWAP1 SWAP2 ADD SLOAD PUSH1 0x80 DUP3 ADD MSTORE SWAP1 JUMP JUMPDEST PUSH2 0xB9F PUSH2 0x10CE JUMP JUMPDEST PUSH2 0x821 PUSH1 0x0 PUSH2 0x1662 JUMP JUMPDEST PUSH2 0xBB1 PUSH2 0x10CE JUMP JUMPDEST PUSH1 0x64 DUP2 GT ISZERO PUSH2 0xC0D JUMPI PUSH1 0x40 MLOAD PUSH3 0x461BCD PUSH1 0xE5 SHL DUP2 MSTORE PUSH1 0x20 PUSH1 0x4 DUP3 ADD MSTORE PUSH1 0x22 PUSH1 0x24 DUP3 ADD MSTORE PUSH32 0x44656361792070657263656E746167652063616E6E6F74206578636565642031 PUSH1 0x44 DUP3 ADD MSTORE PUSH2 0x303 PUSH1 0xF4 SHL PUSH1 0x64 DUP3 ADD MSTORE PUSH1 0x84 ADD PUSH2 0x5FD JUMP JUMPDEST PUSH1 0x6 DUP3 SWAP1 SSTORE PUSH1 0x7 DUP2 SWAP1 SSTORE PUSH1 0x40 DUP1 MLOAD DUP4 DUP2 MSTORE PUSH1 0x20 DUP2 ADD DUP4 SWAP1 MSTORE PUSH32 0xB4D1D08226A0457A6B10795EEA8DBFAC181279F2AD146290BDFB7377A9D2B1B5 SWAP2 ADD PUSH1 0x40 MLOAD DUP1 SWAP2 SUB SWAP1 LOG1 POP POP JUMP JUMPDEST PUSH2 0xC5C PUSH2 0x10CE JUMP JUMPDEST PUSH2 0x821 PUSH2 0x16B4 JUMP JUMPDEST PUSH1 0x1 PUSH1 0x1 PUSH1 0xA0 SHL SUB DUP2 AND PUSH1 0x0 SWAP1 DUP2 MSTORE PUSH1 0x2 PUSH1 0x20 DUP2 SWAP1 MSTORE PUSH1 0x40 SWAP1 SWAP2 KECCAK256 ADD SLOAD PUSH1 0x60 SWAP1 PUSH1 0xFF AND ISZERO PUSH2 0xCA4 JUMPI PUSH1 0x40 MLOAD PUSH3 0x461BCD PUSH1 0xE5 SHL DUP2 MSTORE PUSH1 0x4 ADD PUSH2 0x5FD SWAP1 PUSH2 0x1915 JUMP JUMPDEST PUSH1 0x1 PUSH1 0x1 PUSH1 0xA0 SHL SUB DUP3 AND PUSH1 0x0 SWAP1 DUP2 MSTORE PUSH1 0x2 PUSH1 0x20 MSTORE PUSH1 0x40 SWAP1 KECCAK256 DUP1 SLOAD PUSH2 0xCC7 SWAP1 PUSH2 0x18DB JUMP JUMPDEST DUP1 PUSH1 0x1F ADD PUSH1 0x20 DUP1 SWAP2 DIV MUL PUSH1 0x20 ADD PUSH1 0x40 MLOAD SWAP1 DUP2 ADD PUSH1 0x40 MSTORE DUP1 SWAP3 SWAP2 SWAP1 DUP2 DUP2 MSTORE PUSH1 0x20 ADD DUP3 DUP1 SLOAD PUSH2 0xCF3 SWAP1 PUSH2 0x18DB JUMP JUMPDEST DUP1 ISZERO PUSH2 0xD40 JUMPI DUP1 PUSH1 0x1F LT PUSH2 0xD15 JUMPI PUSH2 0x100 DUP1 DUP4 SLOAD DIV MUL DUP4 MSTORE SWAP2 PUSH1 0x20 ADD SWAP2 PUSH2 0xD40 JUMP JUMPDEST DUP3 ADD SWAP2 SWAP1 PUSH1 0x0 MSTORE PUSH1 0x20 PUSH1 0x0 KECCAK256 SWAP1 JUMPDEST DUP2 SLOAD DUP2 MSTORE SWAP1 PUSH1 0x1 ADD SWAP1 PUSH1 0x20 ADD DUP1 DUP4 GT PUSH2 0xD23 JUMPI DUP3 SWAP1 SUB PUSH1 0x1F AND DUP3 ADD SWAP2 JUMPDEST POP POP POP POP POP SWAP1 POP SWAP2 SWAP1 POP JUMP JUMPDEST PUSH2 0xD54 PUSH2 0x10CE JUMP JUMPDEST PUSH1 0x5 DUP2 SWAP1 SSTORE PUSH1 0x40 MLOAD DUP2 DUP2 MSTORE PUSH32 0x47AB46F2C8D4258304A2F5551C1CBDB6981BE49631365D1BA7191288A73F39EF SWAP1 PUSH1 0x20 ADD PUSH1 0x40 MLOAD DUP1 SWAP2 SUB SWAP1 LOG1 POP JUMP JUMPDEST PUSH2 0xD97 PUSH2 0x10FB JUMP JUMPDEST PUSH2 0xD9F PUSH2 0x1125 JUMP JUMPDEST PUSH1 0x1 PUSH1 0x1 PUSH1 0xA0 SHL SUB DUP2 AND PUSH1 0x0 SWAP1 DUP2 MSTORE PUSH1 0x2 PUSH1 0x20 SWAP1 DUP2 MSTORE PUSH1 0x40 DUP1 DUP4 KECCAK256 CALLER DUP5 MSTORE PUSH1 0x4 ADD SWAP1 SWAP2 MSTORE SWAP1 KECCAK256 SLOAD PUSH2 0xE12 JUMPI PUSH1 0x40 MLOAD PUSH3 0x461BCD PUSH1 0xE5 SHL DUP2 MSTORE PUSH1 0x20 PUSH1 0x4 DUP3 ADD MSTORE PUSH1 0x18 PUSH1 0x24 DUP3 ADD MSTORE PUSH32 0x4E6F206174746573746174696F6E20746F207265766F6B650000000000000000 PUSH1 0x44 DUP3 ADD MSTORE PUSH1 0x64 ADD PUSH2 0x5FD JUMP JUMPDEST PUSH1 0x1 PUSH1 0x1 PUSH1 0xA0 SHL SUB DUP2 AND PUSH1 0x0 SWAP1 DUP2 MSTORE PUSH1 0x2 PUSH1 0x20 DUP2 DUP2 MSTORE PUSH1 0x40 DUP1 DUP5 KECCAK256 CALLER DUP6 MSTORE PUSH1 0x4 ADD SWAP1 SWAP2 MSTORE SWAP1 SWAP2 KECCAK256 ADD SLOAD PUSH1 0xFF AND ISZERO PUSH2 0xE8B JUMPI PUSH1 0x40 MLOAD PUSH3 0x461BCD PUSH1 0xE5 SHL DUP2 MSTORE PUSH1 0x20 PUSH1 0x4 DUP3 ADD MSTORE PUSH1 0x1B PUSH1 0x24 DUP3 ADD MSTORE PUSH32 0x4174746573746174696F6E20616C7265616479207265766F6B65640000000000 PUSH1 0x44 DUP3 ADD MSTORE PUSH1 0x64 ADD PUSH2 0x5FD JUMP JUMPDEST PUSH1 0x1 PUSH1 0x1 PUSH1 0xA0 SHL SUB DUP2 AND PUSH1 0x0 SWAP1 DUP2 MSTORE PUSH1 0x2 PUSH1 0x20 DUP2 DUP2 MSTORE PUSH1 0x40 DUP1 DUP5 KECCAK256 CALLER DUP6 MSTORE PUSH1 0x4 SWAP1 DUP2 ADD DUP4 MSTORE DUP2 DUP6 KECCAK256 SWAP1 SWAP4 ADD DUP1 SLOAD PUSH1 0xFF NOT AND PUSH1 0x1 OR SWAP1 SSTORE SWAP2 SWAP1 MSTORE SWAP1 KECCAK256 SLOAD PUSH2 0xED3 SWAP1 PUSH1 0x64 SWAP1 PUSH2 0x1A7B JUMP JUMPDEST CALLER PUSH1 0x0 SWAP1 DUP2 MSTORE PUSH1 0x4 PUSH1 0x20 MSTORE PUSH1 0x40 SWAP1 KECCAK256 SSTORE PUSH2 0xEEC DUP2 PUSH2 0x1188 JUMP JUMPDEST PUSH2 0xEF5 DUP2 PUSH2 0x1486 JUMP JUMPDEST PUSH1 0x40 MLOAD PUSH1 0x1 PUSH1 0x1 PUSH1 0xA0 SHL SUB DUP3 AND SWAP1 CALLER SWAP1 PUSH32 0x44DB7DD4B6358B875795316C769B036D3566B0EE441DFEE2F7F2BC858B67A3A0 SWAP1 PUSH1 0x0 SWAP1 LOG3 PUSH2 0x593 PUSH1 0x1 PUSH1 0x0 SSTORE JUMP JUMPDEST PUSH2 0xF3D PUSH2 0x10FB JUMP JUMPDEST PUSH2 0xF45 PUSH2 0x1125 JUMP JUMPDEST CALLER PUSH1 0x0 SWAP1 DUP2 MSTORE PUSH1 0x2 PUSH1 0x20 DUP2 SWAP1 MSTORE PUSH1 0x40 SWAP1 SWAP2 KECCAK256 ADD SLOAD PUSH1 0xFF AND PUSH2 0xFBD JUMPI PUSH1 0x40 MLOAD PUSH3 0x461BCD PUSH1 0xE5 SHL DUP2 MSTORE PUSH1 0x20 PUSH1 0x4 DUP3 ADD MSTORE PUSH1 0x2C PUSH1 0x24 DUP3 ADD MSTORE PUSH32 0x43616E206F6E6C79207769746864726177207374616B65206166746572206B65 PUSH1 0x44 DUP3 ADD MSTORE PUSH12 0x3C903932BB37B1B0BA34B7B7 PUSH1 0xA1 SHL PUSH1 0x64 DUP3 ADD MSTORE PUSH1 0x84 ADD PUSH2 0x5FD JUMP JUMPDEST CALLER PUSH1 0x0 SWAP1 DUP2 MSTORE PUSH1 0x2 PUSH1 0x20 MSTORE PUSH1 0x40 SWAP1 KECCAK256 PUSH1 0x3 ADD SLOAD DUP1 PUSH2 0x1014 JUMPI PUSH1 0x40 MLOAD PUSH3 0x461BCD PUSH1 0xE5 SHL DUP2 MSTORE PUSH1 0x20 PUSH1 0x4 DUP3 ADD MSTORE PUSH1 0x14 PUSH1 0x24 DUP3 ADD MSTORE PUSH20 0x4E6F207374616B6520746F207769746864726177 PUSH1 0x60 SHL PUSH1 0x44 DUP3 ADD MSTORE PUSH1 0x64 ADD PUSH2 0x5FD JUMP JUMPDEST CALLER PUSH1 0x0 DUP2 DUP2 MSTORE PUSH1 0x2 PUSH1 0x20 MSTORE PUSH1 0x40 DUP1 DUP3 KECCAK256 PUSH1 0x3 ADD DUP3 SWAP1 SSTORE MLOAD DUP4 ISZERO PUSH2 0x8FC MUL SWAP2 DUP5 SWAP2 SWAP1 DUP2 DUP2 DUP2 DUP6 DUP9 DUP9 CALL SWAP4 POP POP POP POP ISZERO DUP1 ISZERO PUSH2 0x1052 JUMPI RETURNDATASIZE PUSH1 0x0 DUP1 RETURNDATACOPY RETURNDATASIZE PUSH1 0x0 REVERT JUMPDEST POP PUSH1 0x40 MLOAD DUP2 DUP2 MSTORE CALLER SWAP1 PUSH32 0x8108595EB6BAD3ACEFA9DA467D90CC2217686D5C5AC85460F8B7849C840645FC SWAP1 PUSH1 0x20 ADD PUSH1 0x40 MLOAD DUP1 SWAP2 SUB SWAP1 LOG2 POP PUSH2 0x821 PUSH1 0x1 PUSH1 0x0 SSTORE JUMP JUMPDEST PUSH2 0x109B PUSH2 0x10CE JUMP JUMPDEST PUSH1 0x1 PUSH1 0x1 PUSH1 0xA0 SHL SUB DUP2 AND PUSH2 0x10C5 JUMPI PUSH1 0x40 MLOAD PUSH4 0x1E4FBDF7 PUSH1 0xE0 SHL DUP2 MSTORE PUSH1 0x0 PUSH1 0x4 DUP3 ADD MSTORE PUSH1 0x24 ADD PUSH2 0x5FD JUMP JUMPDEST PUSH2 0x593 DUP2 PUSH2 0x1662 JUMP JUMPDEST PUSH1 0x1 SLOAD PUSH1 0x1 PUSH1 0x1 PUSH1 0xA0 SHL SUB AND CALLER EQ PUSH2 0x821 JUMPI PUSH1 0x40 MLOAD PUSH4 0x118CDAA7 PUSH1 0xE0 SHL DUP2 MSTORE CALLER PUSH1 0x4 DUP3 ADD MSTORE PUSH1 0x24 ADD PUSH2 0x5FD JUMP JUMPDEST PUSH1 0x2 PUSH1 0x0 SLOAD SUB PUSH2 0x111E JUMPI PUSH1 0x40 MLOAD PUSH4 0x3EE5AEB5 PUSH1 0xE0 SHL DUP2 MSTORE PUSH1 0x4 ADD PUSH1 0x40 MLOAD DUP1 SWAP2 SUB SWAP1 REVERT JUMPDEST PUSH1 0x2 PUSH1 0x0 SSTORE JUMP JUMPDEST PUSH1 0x1 SLOAD PUSH1 0x1 PUSH1 0xA0 SHL SWAP1 DIV PUSH1 0xFF AND ISZERO PUSH2 0x821 JUMPI PUSH1 0x40 MLOAD PUSH4 0xD93C0665 PUSH1 0xE0 SHL DUP2 MSTORE PUSH1 0x4 ADD PUSH1 0x40 MLOAD DUP1 SWAP2 SUB SWAP1 REVERT JUMPDEST PUSH1 0x1 PUSH1 0x1 PUSH1 0xA0 SHL SUB DUP2 AND PUSH1 0x0 SWAP1 DUP2 MSTORE PUSH1 0x4 PUSH1 0x20 MSTORE PUSH1 0x40 DUP2 KECCAK256 SLOAD PUSH1 0x32 PUSH2 0x1176 PUSH1 0xA DUP4 PUSH2 0x1A8E JUMP JUMPDEST PUSH2 0x1180 SWAP1 DUP3 PUSH2 0x1A7B JUMP JUMPDEST SWAP5 SWAP4 POP POP POP POP JUMP JUMPDEST PUSH1 0x1 PUSH1 0x1 PUSH1 0xA0 SHL SUB DUP2 AND PUSH1 0x0 SWAP1 DUP2 MSTORE PUSH1 0x3 PUSH1 0x20 DUP2 SWAP1 MSTORE PUSH1 0x40 DUP1 DUP4 KECCAK256 DUP4 DUP2 SSTORE PUSH1 0x1 DUP2 ADD DUP5 SWAP1 SSTORE SWAP2 DUP3 ADD DUP4 SWAP1 SSTORE DUP1 MLOAD PUSH1 0x64 DUP1 DUP3 MSTORE PUSH2 0xCA0 DUP3 ADD SWAP1 SWAP3 MSTORE SWAP2 SWAP3 SWAP2 DUP3 SWAP2 DUP2 PUSH1 0x20 ADD PUSH1 0x20 DUP3 MUL DUP1 CALLDATASIZE DUP4 CALLDATACOPY POP POP POP PUSH1 0x1 PUSH1 0x1 PUSH1 0xA0 SHL SUB DUP6 AND PUSH1 0x0 SWAP1 DUP2 MSTORE PUSH1 0x2 PUSH1 0x20 MSTORE PUSH1 0x40 DUP2 KECCAK256 PUSH1 0x5 ADD SLOAD SWAP2 SWAP3 POP SWAP1 PUSH1 0x64 GT PUSH2 0x1204 JUMPI PUSH1 0x64 PUSH2 0x1221 JUMP JUMPDEST PUSH1 0x1 PUSH1 0x1 PUSH1 0xA0 SHL SUB DUP6 AND PUSH1 0x0 SWAP1 DUP2 MSTORE PUSH1 0x2 PUSH1 0x20 MSTORE PUSH1 0x40 SWAP1 KECCAK256 PUSH1 0x5 ADD SLOAD JUMPDEST SWAP1 POP PUSH1 0x0 JUMPDEST DUP2 DUP2 LT ISZERO PUSH2 0x13DB JUMPI PUSH1 0x1 PUSH1 0x1 PUSH1 0xA0 SHL SUB DUP7 AND PUSH1 0x0 SWAP1 DUP2 MSTORE PUSH1 0x2 PUSH1 0x20 MSTORE PUSH1 0x40 DUP2 KECCAK256 PUSH1 0x5 ADD DUP1 SLOAD DUP4 SWAP1 DUP2 LT PUSH2 0x125B JUMPI PUSH2 0x125B PUSH2 0x1AB0 JUMP JUMPDEST PUSH1 0x0 SWAP2 DUP3 MSTORE PUSH1 0x20 DUP1 DUP4 KECCAK256 SWAP1 SWAP2 ADD SLOAD PUSH1 0x1 PUSH1 0x1 PUSH1 0xA0 SHL SUB DUP11 DUP2 AND DUP5 MSTORE PUSH1 0x2 DUP1 DUP5 MSTORE PUSH1 0x40 DUP1 DUP7 KECCAK256 SWAP3 SWAP1 SWAP4 AND DUP1 DUP7 MSTORE PUSH1 0x4 SWAP1 SWAP3 ADD DUP5 MSTORE SWAP4 DUP3 SWAP1 KECCAK256 DUP3 MLOAD PUSH1 0x60 DUP2 ADD DUP5 MSTORE DUP2 SLOAD DUP2 MSTORE PUSH1 0x1 DUP3 ADD SLOAD SWAP5 DUP2 ADD SWAP5 SWAP1 SWAP5 MSTORE SWAP1 SWAP4 ADD SLOAD PUSH1 0xFF AND ISZERO ISZERO SWAP1 DUP3 ADD DUP2 SWAP1 MSTORE SWAP2 SWAP3 POP SWAP1 PUSH2 0x13C6 JUMPI PUSH1 0x20 DUP2 ADD MLOAD DUP8 SLOAD PUSH2 0x12D2 SWAP2 SWAP1 PUSH2 0x1953 JUMP JUMPDEST DUP8 SSTORE DUP1 MLOAD PUSH1 0x0 SWAP1 PUSH3 0x15180 SWAP1 PUSH2 0x12E8 SWAP1 TIMESTAMP PUSH2 0x1A7B JUMP JUMPDEST PUSH2 0x12F2 SWAP2 SWAP1 PUSH2 0x1A8E JUMP JUMPDEST SWAP1 POP PUSH1 0x1E DUP2 LT ISZERO PUSH2 0x131D JUMPI PUSH2 0x1308 DUP2 PUSH1 0x1E PUSH2 0x1A7B JUMP JUMPDEST DUP9 PUSH1 0x1 ADD SLOAD PUSH2 0x1317 SWAP2 SWAP1 PUSH2 0x1953 JUMP JUMPDEST PUSH1 0x1 DUP10 ADD SSTORE JUMPDEST PUSH1 0x1 PUSH1 0x0 JUMPDEST DUP9 DUP2 LT ISZERO PUSH2 0x1377 JUMPI DUP5 PUSH1 0x1 PUSH1 0x1 PUSH1 0xA0 SHL SUB AND DUP9 DUP3 DUP2 MLOAD DUP2 LT PUSH2 0x1346 JUMPI PUSH2 0x1346 PUSH2 0x1AB0 JUMP JUMPDEST PUSH1 0x20 MUL PUSH1 0x20 ADD ADD MLOAD PUSH1 0x1 PUSH1 0x1 PUSH1 0xA0 SHL SUB AND SUB PUSH2 0x1365 JUMPI PUSH1 0x0 SWAP2 POP PUSH2 0x1377 JUMP JUMPDEST DUP1 PUSH2 0x136F DUP2 PUSH2 0x1AC6 JUMP JUMPDEST SWAP2 POP POP PUSH2 0x1322 JUMP JUMPDEST POP DUP1 DUP1 ISZERO PUSH2 0x1385 JUMPI POP PUSH1 0x64 DUP9 LT JUMPDEST ISZERO PUSH2 0x13C3 JUMPI DUP4 DUP8 DUP10 DUP2 MLOAD DUP2 LT PUSH2 0x139D JUMPI PUSH2 0x139D PUSH2 0x1AB0 JUMP JUMPDEST PUSH1 0x1 PUSH1 0x1 PUSH1 0xA0 SHL SUB SWAP1 SWAP3 AND PUSH1 0x20 SWAP3 DUP4 MUL SWAP2 SWAP1 SWAP2 ADD SWAP1 SWAP2 ADD MSTORE DUP8 PUSH2 0x13BF DUP2 PUSH2 0x1AC6 JUMP JUMPDEST SWAP9 POP POP JUMPDEST POP POP JUMPDEST POP POP DUP1 DUP1 PUSH2 0x13D3 SWAP1 PUSH2 0x1AC6 JUMP JUMPDEST SWAP2 POP POP PUSH2 0x1226 JUMP JUMPDEST POP PUSH2 0x13E7 DUP4 PUSH1 0xA PUSH2 0x1ADF JUMP JUMPDEST PUSH1 0x3 DUP6 ADD SSTORE PUSH1 0x1 PUSH1 0x1 PUSH1 0xA0 SHL SUB DUP6 AND PUSH1 0x0 SWAP1 DUP2 MSTORE PUSH1 0x2 PUSH1 0x20 MSTORE PUSH1 0x40 DUP2 KECCAK256 PUSH1 0x1 ADD SLOAD PUSH3 0x15180 SWAP1 PUSH2 0x1417 SWAP1 TIMESTAMP PUSH2 0x1A7B JUMP JUMPDEST PUSH2 0x1421 SWAP2 SWAP1 PUSH2 0x1A8E JUMP JUMPDEST SWAP1 POP PUSH2 0x16D DUP2 GT PUSH2 0x1449 JUMPI PUSH2 0x16D PUSH2 0x143A DUP3 PUSH1 0x64 PUSH2 0x1ADF JUMP JUMPDEST PUSH2 0x1444 SWAP2 SWAP1 PUSH2 0x1A8E JUMP JUMPDEST PUSH2 0x144C JUMP JUMPDEST PUSH1 0x64 JUMPDEST PUSH1 0x2 DUP7 ADD SSTORE PUSH1 0x1 PUSH1 0x1 PUSH1 0xA0 SHL SUB DUP7 AND PUSH1 0x0 SWAP1 DUP2 MSTORE PUSH1 0x4 PUSH1 0x20 MSTORE PUSH1 0x40 SWAP1 KECCAK256 SLOAD PUSH2 0x1476 SWAP1 PUSH1 0xA SWAP1 PUSH2 0x1A8E JUMP JUMPDEST DUP6 PUSH1 0x4 ADD DUP2 SWAP1 SSTORE POP POP POP POP POP POP POP JUMP JUMPDEST PUSH1 0x1 PUSH1 0x1 PUSH1 0xA0 SHL SUB DUP2 AND PUSH1 0x0 SWAP1 DUP2 MSTORE PUSH1 0x3 PUSH1 0x20 DUP2 DUP2 MSTORE PUSH1 0x40 DUP1 DUP5 KECCAK256 DUP2 MLOAD PUSH1 0xA0 DUP2 ADD DUP4 MSTORE DUP2 SLOAD DUP2 MSTORE PUSH1 0x1 DUP3 ADD SLOAD SWAP4 DUP2 ADD DUP5 SWAP1 MSTORE PUSH1 0x2 DUP1 DUP4 ADD SLOAD SWAP4 DUP3 ADD DUP5 SWAP1 MSTORE SWAP5 DUP3 ADD SLOAD PUSH1 0x60 DUP3 ADD DUP2 SWAP1 MSTORE PUSH1 0x4 SWAP1 SWAP3 ADD SLOAD PUSH1 0x80 DUP3 ADD DUP2 SWAP1 MSTORE SWAP1 SWAP6 SWAP5 SWAP1 SWAP4 SWAP2 SWAP3 SWAP2 PUSH2 0x14ED SWAP2 PUSH2 0x1ADF JUMP JUMPDEST DUP6 MLOAD PUSH2 0x14F9 SWAP2 SWAP1 PUSH2 0x1953 JUMP JUMPDEST PUSH2 0x1503 SWAP2 SWAP1 PUSH2 0x1953 JUMP JUMPDEST PUSH2 0x150D SWAP2 SWAP1 PUSH2 0x1953 JUMP JUMPDEST PUSH2 0x1517 SWAP2 SWAP1 PUSH2 0x1953 JUMP JUMPDEST SWAP1 POP PUSH1 0x0 PUSH2 0x3E8 DUP3 GT PUSH2 0x152A JUMPI DUP2 PUSH2 0x152E JUMP JUMPDEST PUSH2 0x3E8 JUMPDEST PUSH1 0x1 PUSH1 0x1 PUSH1 0xA0 SHL SUB DUP6 AND PUSH1 0x0 SWAP1 DUP2 MSTORE PUSH1 0x2 PUSH1 0x20 MSTORE PUSH1 0x40 DUP2 KECCAK256 PUSH1 0x1 ADD SLOAD SWAP2 SWAP3 POP PUSH2 0x1557 DUP3 TIMESTAMP PUSH2 0x1A7B JUMP JUMPDEST SWAP1 POP PUSH1 0x0 PUSH1 0x6 SLOAD DUP3 PUSH2 0x1569 SWAP2 SWAP1 PUSH2 0x1A8E JUMP JUMPDEST SWAP1 POP PUSH1 0x0 JUMPDEST DUP2 DUP2 LT ISZERO PUSH2 0x15AE JUMPI PUSH1 0x64 PUSH1 0x7 SLOAD PUSH2 0x1585 SWAP2 SWAP1 PUSH2 0x1A8E JUMP JUMPDEST PUSH2 0x1590 DUP7 PUSH1 0x64 PUSH2 0x1ADF JUMP JUMPDEST PUSH2 0x159A SWAP2 SWAP1 PUSH2 0x1A7B JUMP JUMPDEST SWAP5 POP DUP1 PUSH2 0x15A6 DUP2 PUSH2 0x1AC6 JUMP JUMPDEST SWAP2 POP POP PUSH2 0x156E JUMP JUMPDEST POP PUSH1 0x1 PUSH1 0x1 PUSH1 0xA0 SHL SUB DUP8 AND PUSH1 0x0 DUP2 DUP2 MSTORE PUSH1 0x4 PUSH1 0x20 MSTORE PUSH1 0x40 SWAP1 DUP2 SWAP1 KECCAK256 DUP7 SWAP1 SSTORE MLOAD PUSH32 0x16BF5E9C27E8FB3837DCA08521258EAF9F8E21BB809D3DD7A1A4A00093C99A44 SWAP1 PUSH2 0x15FC SWAP1 DUP8 DUP2 MSTORE PUSH1 0x20 ADD SWAP1 JUMP JUMPDEST PUSH1 0x40 MLOAD DUP1 SWAP2 SUB SWAP1 LOG2 POP POP POP POP POP POP POP JUMP JUMPDEST PUSH2 0x1615 PUSH2 0x16F7 JUMP JUMPDEST PUSH1 0x1 DUP1 SLOAD PUSH1 0xFF PUSH1 0xA0 SHL NOT AND SWAP1 SSTORE PUSH32 0x5DB9EE0A495BF2E6FF9C91A7834C1BA4FDD244A5E8AA4E537BD38AEAE4B073AA CALLER JUMPDEST PUSH1 0x40 MLOAD PUSH1 0x1 PUSH1 0x1 PUSH1 0xA0 SHL SUB SWAP1 SWAP2 AND DUP2 MSTORE PUSH1 0x20 ADD PUSH1 0x40 MLOAD DUP1 SWAP2 SUB SWAP1 LOG1 JUMP JUMPDEST PUSH1 0x1 DUP1 SLOAD PUSH1 0x1 PUSH1 0x1 PUSH1 0xA0 SHL SUB DUP4 DUP2 AND PUSH1 0x1 PUSH1 0x1 PUSH1 0xA0 SHL SUB NOT DUP4 AND DUP2 OR SWAP1 SWAP4 SSTORE PUSH1 0x40 MLOAD SWAP2 AND SWAP2 SWAP1 DUP3 SWAP1 PUSH32 0x8BE0079C531659141344CD1FD0A4F28419497F9722A3DAAFE3B4186F6B6457E0 SWAP1 PUSH1 0x0 SWAP1 LOG3 POP POP JUMP JUMPDEST PUSH2 0x16BC PUSH2 0x1125 JUMP JUMPDEST PUSH1 0x1 DUP1 SLOAD PUSH1 0xFF PUSH1 0xA0 SHL NOT AND PUSH1 0x1 PUSH1 0xA0 SHL OR SWAP1 SSTORE PUSH32 0x62E78CEA01BEE320CD4E420270B5EA74000D11B0C9F74754EBDBFC544B05A258 PUSH2 0x1645 CALLER SWAP1 JUMP JUMPDEST PUSH1 0x1 SLOAD PUSH1 0x1 PUSH1 0xA0 SHL SWAP1 DIV PUSH1 0xFF AND PUSH2 0x821 JUMPI PUSH1 0x40 MLOAD PUSH4 0x8DFC202B PUSH1 0xE0 SHL DUP2 MSTORE PUSH1 0x4 ADD PUSH1 0x40 MLOAD DUP1 SWAP2 SUB SWAP1 REVERT JUMPDEST PUSH1 0x0 PUSH1 0x20 DUP3 DUP5 SUB SLT ISZERO PUSH2 0x1733 JUMPI PUSH1 0x0 DUP1 REVERT JUMPDEST DUP2 CALLDATALOAD PUSH1 0x1 PUSH1 0x1 PUSH1 0xA0 SHL SUB DUP2 AND DUP2 EQ PUSH2 0x174A JUMPI PUSH1 0x0 DUP1 REVERT JUMPDEST SWAP4 SWAP3 POP POP POP JUMP JUMPDEST PUSH4 0x4E487B71 PUSH1 0xE0 SHL PUSH1 0x0 MSTORE PUSH1 0x41 PUSH1 0x4 MSTORE PUSH1 0x24 PUSH1 0x0 REVERT JUMPDEST PUSH1 0x0 PUSH1 0x20 DUP3 DUP5 SUB SLT ISZERO PUSH2 0x1779 JUMPI PUSH1 0x0 DUP1 REVERT JUMPDEST DUP2 CALLDATALOAD PUSH8 0xFFFFFFFFFFFFFFFF DUP1 DUP3 GT ISZERO PUSH2 0x1791 JUMPI PUSH1 0x0 DUP1 REVERT JUMPDEST DUP2 DUP5 ADD SWAP2 POP DUP5 PUSH1 0x1F DUP4 ADD SLT PUSH2 0x17A5 JUMPI PUSH1 0x0 DUP1 REVERT JUMPDEST DUP2 CALLDATALOAD DUP2 DUP2 GT ISZERO PUSH2 0x17B7 JUMPI PUSH2 0x17B7 PUSH2 0x1751 JUMP JUMPDEST PUSH1 0x40 MLOAD PUSH1 0x1F DUP3 ADD PUSH1 0x1F NOT SWAP1 DUP2 AND PUSH1 0x3F ADD AND DUP2 ADD SWAP1 DUP4 DUP3 GT DUP2 DUP4 LT OR ISZERO PUSH2 0x17DF JUMPI PUSH2 0x17DF PUSH2 0x1751 JUMP JUMPDEST DUP2 PUSH1 0x40 MSTORE DUP3 DUP2 MSTORE DUP8 PUSH1 0x20 DUP5 DUP8 ADD ADD GT ISZERO PUSH2 0x17F8 JUMPI PUSH1 0x0 DUP1 REVERT JUMPDEST DUP3 PUSH1 0x20 DUP7 ADD PUSH1 0x20 DUP4 ADD CALLDATACOPY PUSH1 0x0 SWAP3 DUP2 ADD PUSH1 0x20 ADD SWAP3 SWAP1 SWAP3 MSTORE POP SWAP6 SWAP5 POP POP POP POP POP JUMP JUMPDEST PUSH1 0x0 DUP2 MLOAD DUP1 DUP5 MSTORE PUSH1 0x0 JUMPDEST DUP2 DUP2 LT ISZERO PUSH2 0x183E JUMPI PUSH1 0x20 DUP2 DUP6 ADD DUP2 ADD MLOAD DUP7 DUP4 ADD DUP3 ADD MSTORE ADD PUSH2 0x1822 JUMP JUMPDEST POP PUSH1 0x0 PUSH1 0x20 DUP3 DUP7 ADD ADD MSTORE PUSH1 0x20 PUSH1 0x1F NOT PUSH1 0x1F DUP4 ADD AND DUP6 ADD ADD SWAP2 POP POP SWAP3 SWAP2 POP POP JUMP JUMPDEST PUSH1 0x80 DUP2 MSTORE PUSH1 0x0 PUSH2 0x1871 PUSH1 0x80 DUP4 ADD DUP8 PUSH2 0x1818 JUMP JUMPDEST PUSH1 0x20 DUP4 ADD SWAP6 SWAP1 SWAP6 MSTORE POP SWAP2 ISZERO ISZERO PUSH1 0x40 DUP4 ADD MSTORE PUSH1 0x60 SWAP1 SWAP2 ADD MSTORE SWAP2 SWAP1 POP JUMP JUMPDEST PUSH1 0x0 DUP1 PUSH1 0x40 DUP4 DUP6 SUB SLT ISZERO PUSH2 0x18A0 JUMPI PUSH1 0x0 DUP1 REVERT JUMPDEST POP POP DUP1 CALLDATALOAD SWAP3 PUSH1 0x20 SWAP1 SWAP2 ADD CALLDATALOAD SWAP2 POP JUMP JUMPDEST PUSH1 0x20 DUP2 MSTORE PUSH1 0x0 PUSH2 0x174A PUSH1 0x20 DUP4 ADD DUP5 PUSH2 0x1818 JUMP JUMPDEST PUSH1 0x0 PUSH1 0x20 DUP3 DUP5 SUB SLT ISZERO PUSH2 0x18D4 JUMPI PUSH1 0x0 DUP1 REVERT JUMPDEST POP CALLDATALOAD SWAP2 SWAP1 POP JUMP JUMPDEST PUSH1 0x1 DUP2 DUP2 SHR SWAP1 DUP3 AND DUP1 PUSH2 0x18EF JUMPI PUSH1 0x7F DUP3 AND SWAP2 POP JUMPDEST PUSH1 0x20 DUP3 LT DUP2 SUB PUSH2 0x190F JUMPI PUSH4 0x4E487B71 PUSH1 0xE0 SHL PUSH1 0x0 MSTORE PUSH1 0x22 PUSH1 0x4 MSTORE PUSH1 0x24 PUSH1 0x0 REVERT JUMPDEST POP SWAP2 SWAP1 POP JUMP JUMPDEST PUSH1 0x20 DUP1 DUP3 MSTORE PUSH1 0xE SWAP1 DUP3 ADD MSTORE PUSH14 0x12D95E481A5CC81C995D9BDAD959 PUSH1 0x92 SHL PUSH1 0x40 DUP3 ADD MSTORE PUSH1 0x60 ADD SWAP1 JUMP JUMPDEST PUSH4 0x4E487B71 PUSH1 0xE0 SHL PUSH1 0x0 MSTORE PUSH1 0x11 PUSH1 0x4 MSTORE PUSH1 0x24 PUSH1 0x0 REVERT JUMPDEST DUP1 DUP3 ADD DUP1 DUP3 GT ISZERO PUSH2 0x1966 JUMPI PUSH2 0x1966 PUSH2 0x193D JUMP JUMPDEST SWAP3 SWAP2 POP POP JUMP JUMPDEST PUSH1 0x1F DUP3 GT ISZERO PUSH2 0x19B6 JUMPI PUSH1 0x0 DUP2 DUP2 MSTORE PUSH1 0x20 DUP2 KECCAK256 PUSH1 0x1F DUP6 ADD PUSH1 0x5 SHR DUP2 ADD PUSH1 0x20 DUP7 LT ISZERO PUSH2 0x1993 JUMPI POP DUP1 JUMPDEST PUSH1 0x1F DUP6 ADD PUSH1 0x5 SHR DUP3 ADD SWAP2 POP JUMPDEST DUP2 DUP2 LT ISZERO PUSH2 0x19B2 JUMPI DUP3 DUP2 SSTORE PUSH1 0x1 ADD PUSH2 0x199F JUMP JUMPDEST POP POP POP JUMPDEST POP POP POP JUMP JUMPDEST DUP2 MLOAD PUSH8 0xFFFFFFFFFFFFFFFF DUP2 GT ISZERO PUSH2 0x19D5 JUMPI PUSH2 0x19D5 PUSH2 0x1751 JUMP JUMPDEST PUSH2 0x19E9 DUP2 PUSH2 0x19E3 DUP5 SLOAD PUSH2 0x18DB JUMP JUMPDEST DUP5 PUSH2 0x196C JUMP JUMPDEST PUSH1 0x20 DUP1 PUSH1 0x1F DUP4 GT PUSH1 0x1 DUP2 EQ PUSH2 0x1A1E JUMPI PUSH1 0x0 DUP5 ISZERO PUSH2 0x1A06 JUMPI POP DUP6 DUP4 ADD MLOAD JUMPDEST PUSH1 0x0 NOT PUSH1 0x3 DUP7 SWAP1 SHL SHR NOT AND PUSH1 0x1 DUP6 SWAP1 SHL OR DUP6 SSTORE PUSH2 0x19B2 JUMP JUMPDEST PUSH1 0x0 DUP6 DUP2 MSTORE PUSH1 0x20 DUP2 KECCAK256 PUSH1 0x1F NOT DUP7 AND SWAP2 JUMPDEST DUP3 DUP2 LT ISZERO PUSH2 0x1A4D JUMPI DUP9 DUP7 ADD MLOAD DUP3 SSTORE SWAP5 DUP5 ADD SWAP5 PUSH1 0x1 SWAP1 SWAP2 ADD SWAP1 DUP5 ADD PUSH2 0x1A2E JUMP JUMPDEST POP DUP6 DUP3 LT ISZERO PUSH2 0x1A6B JUMPI DUP8 DUP6 ADD MLOAD PUSH1 0x0 NOT PUSH1 0x3 DUP9 SWAP1 SHL PUSH1 0xF8 AND SHR NOT AND DUP2 SSTORE JUMPDEST POP POP POP POP POP PUSH1 0x1 SWAP1 DUP2 SHL ADD SWAP1 SSTORE POP JUMP JUMPDEST DUP2 DUP2 SUB DUP2 DUP2 GT ISZERO PUSH2 0x1966 JUMPI PUSH2 0x1966 PUSH2 0x193D JUMP JUMPDEST PUSH1 0x0 DUP3 PUSH2 0x1AAB JUMPI PUSH4 0x4E487B71 PUSH1 0xE0 SHL PUSH1 0x0 MSTORE PUSH1 0x12 PUSH1 0x4 MSTORE PUSH1 0x24 PUSH1 0x0 REVERT JUMPDEST POP DIV SWAP1 JUMP JUMPDEST PUSH4 0x4E487B71 PUSH1 0xE0 SHL PUSH1 0x0 MSTORE PUSH1 0x32 PUSH1 0x4 MSTORE PUSH1 0x24 PUSH1 0x0 REVERT JUMPDEST PUSH1 0x0 PUSH1 0x1 DUP3 ADD PUSH2 0x1AD8 JUMPI PUSH2 0x1AD8 PUSH2 0x193D JUMP JUMPDEST POP PUSH1 0x1 ADD SWAP1 JUMP JUMPDEST DUP1 DUP3 MUL DUP2 ISZERO DUP3 DUP3 DIV DUP5 EQ OR PUSH2 0x1966 JUMPI PUSH2 0x1966 PUSH2 0x193D JUMP INVALID LOG2 PUSH5 0x6970667358 0x22 SLT KECCAK256 0xC 0xEC PUSH10 0xE58483DCD853588DCF1F DELEGATECALL STOP PUSH27 0x94B029F8E0491908A806E3675DF740C164736F6C63430008140033 "},"methodIdentifiers":{"ATTESTATION_COOLDOWN()":"d93bbf28","MAX_ATTESTORS_PER_UPDATE()":"a28fbaaf","MAX_TRUST_SCORE()":"74c8d377","REVOCATION_PENALTY()":"a3ea156d","attestKey(address)":"3964e14b","getPublicKey(address)":"857cdbb8","getTrustMetrics(address)":"6d7d976c","getTrustScore(address)":"5e09eea1","keys(address)":"670d14b2","minStake()":"375b3c0a","owner()":"8da5cb5b","pause()":"8456cb59","paused()":"5c975abb","registerKey(string)":"4a80f2ba","renounceOwnership()":"715018a6","revokeAttestation(address)":"9ab0dca5","revokeKey()":"69021a5f","transferOwnership(address)":"f2fde38b","trustDecayPercentage()":"f7907c27","trustDecayPeriod()":"a330c37d","trustMetrics(address)":"40c35a88","trustScores(address)":"12df0fc4","unpause()":"3f4ba83a","updateMinStake(uint256)":"8cdb442f","updateTrustDecay(uint256,uint256)":"8137e421","withdrawFunds()":"24600fc3","withdrawStake()":"bed9d861"}}}}}