{
  "_format": "hh-sol-artifact-1",
  "contractName": "AdvancedPGPKeyServer",
  "sourceName": "contracts/AdvancedPGPKeyServer.sol",
  "abi": [
    {
      "inputs": [],
      "stateMutability": "nonpayable",
      "type": "constructor"
    },
    {
      "inputs": [],
      "name": "EnforcedPause",
      "type": "error"
    },
    {
      "inputs": [],
      "name": "ExpectedPause",
      "type": "error"
    },
    {
      "inputs": [
        {
          "internalType": "address",
          "name": "owner",
          "type": "address"
        }
      ],
      "name": "OwnableInvalidOwner",
      "type": "error"
    },
    {
      "inputs": [
        {
          "internalType": "address",
          "name": "account",
          "type": "address"
        }
      ],
      "name": "OwnableUnauthorizedAccount",
      "type": "error"
    },
    {
      "inputs": [],
      "name": "ReentrancyGuardReentrantCall",
      "type": "error"
    },
    {
      "anonymous": false,
      "inputs": [
        {
          "indexed": true,
          "internalType": "address",
          "name": "attester",
          "type": "address"
        },
        {
          "indexed": true,
          "internalType": "address",
          "name": "keyOwner",
          "type": "address"
        }
      ],
      "name": "AttestationMade",
      "type": "event"
    },
    {
      "anonymous": false,
      "inputs": [
        {
          "indexed": true,
          "internalType": "address",
          "name": "attester",
          "type": "address"
        },
        {
          "indexed": true,
          "internalType": "address",
          "name": "keyOwner",
          "type": "address"
        }
      ],
      "name": "AttestationRevoked",
      "type": "event"
    },
    {
      "anonymous": false,
      "inputs": [
        {
          "indexed": true,
          "internalType": "address",
          "name": "user",
          "type": "address"
        },
        {
          "indexed": false,
          "internalType": "string",
          "name": "publicKey",
          "type": "string"
        }
      ],
      "name": "KeyRegistered",
      "type": "event"
    },
    {
      "anonymous": false,
      "inputs": [
        {
          "indexed": true,
          "internalType": "address",
          "name": "user",
          "type": "address"
        }
      ],
      "name": "KeyRevoked",
      "type": "event"
    },
    {
      "anonymous": false,
      "inputs": [
        {
          "indexed": false,
          "internalType": "uint256",
          "name": "newMinStake",
          "type": "uint256"
        }
      ],
      "name": "MinStakeUpdated",
      "type": "event"
    },
    {
      "anonymous": false,
      "inputs": [
        {
          "indexed": true,
          "internalType": "address",
          "name": "previousOwner",
          "type": "address"
        },
        {
          "indexed": true,
          "internalType": "address",
          "name": "newOwner",
          "type": "address"
        }
      ],
      "name": "OwnershipTransferred",
      "type": "event"
    },
    {
      "anonymous": false,
      "inputs": [
        {
          "indexed": false,
          "internalType": "address",
          "name": "account",
          "type": "address"
        }
      ],
      "name": "Paused",
      "type": "event"
    },
    {
      "anonymous": false,
      "inputs": [
        {
          "indexed": true,
          "internalType": "address",
          "name": "user",
          "type": "address"
        },
        {
          "indexed": false,
          "internalType": "uint256",
          "name": "amount",
          "type": "uint256"
        }
      ],
      "name": "StakeWithdrawn",
      "type": "event"
    },
    {
      "anonymous": false,
      "inputs": [
        {
          "indexed": false,
          "internalType": "uint256",
          "name": "newPeriod",
          "type": "uint256"
        },
        {
          "indexed": false,
          "internalType": "uint256",
          "name": "newPercentage",
          "type": "uint256"
        }
      ],
      "name": "TrustDecayUpdated",
      "type": "event"
    },
    {
      "anonymous": false,
      "inputs": [
        {
          "indexed": true,
          "internalType": "address",
          "name": "user",
          "type": "address"
        },
        {
          "indexed": false,
          "internalType": "uint256",
          "name": "newScore",
          "type": "uint256"
        }
      ],
      "name": "TrustScoreUpdated",
      "type": "event"
    },
    {
      "anonymous": false,
      "inputs": [
        {
          "indexed": false,
          "internalType": "address",
          "name": "account",
          "type": "address"
        }
      ],
      "name": "Unpaused",
      "type": "event"
    },
    {
      "inputs": [],
      "name": "ATTESTATION_COOLDOWN",
      "outputs": [
        {
          "internalType": "uint256",
          "name": "",
          "type": "uint256"
        }
      ],
      "stateMutability": "view",
      "type": "function"
    },
    {
      "inputs": [],
      "name": "MAX_ATTESTORS_PER_UPDATE",
      "outputs": [
        {
          "internalType": "uint256",
          "name": "",
          "type": "uint256"
        }
      ],
      "stateMutability": "view",
      "type": "function"
    },
    {
      "inputs": [],
      "name": "MAX_TRUST_SCORE",
      "outputs": [
        {
          "internalType": "uint256",
          "name": "",
          "type": "uint256"
        }
      ],
      "stateMutability": "view",
      "type": "function"
    },
    {
      "inputs": [],
      "name": "REVOCATION_PENALTY",
      "outputs": [
        {
          "internalType": "uint256",
          "name": "",
          "type": "uint256"
        }
      ],
      "stateMutability": "view",
      "type": "function"
    },
    {
      "inputs": [
        {
          "internalType": "address",
          "name": "",
          "type": "address"
        }
      ],
      "name": "activeAttestations",
      "outputs": [
        {
          "internalType": "uint256",
          "name": "",
          "type": "uint256"
        }
      ],
      "stateMutability": "view",
      "type": "function"
    },
    {
      "inputs": [
        {
          "internalType": "address",
          "name": "_keyOwner",
          "type": "address"
        }
      ],
      "name": "attestKey",
      "outputs": [],
      "stateMutability": "nonpayable",
      "type": "function"
    },
    {
      "inputs": [
        {
          "internalType": "address",
          "name": "_keyOwner",
          "type": "address"
        }
      ],
      "name": "getPublicKey",
      "outputs": [
        {
          "internalType": "string",
          "name": "",
          "type": "string"
        }
      ],
      "stateMutability": "view",
      "type": "function"
    },
    {
      "inputs": [
        {
          "internalType": "address",
          "name": "_keyOwner",
          "type": "address"
        }
      ],
      "name": "getTrustMetrics",
      "outputs": [
        {
          "components": [
            {
              "internalType": "uint256",
              "name": "totalWeight",
              "type": "uint256"
            },
            {
              "internalType": "uint256",
              "name": "recentActivityScore",
              "type": "uint256"
            },
            {
              "internalType": "uint256",
              "name": "longevityScore",
              "type": "uint256"
            },
            {
              "internalType": "uint256",
              "name": "diversityScore",
              "type": "uint256"
            },
            {
              "internalType": "uint256",
              "name": "reputationScore",
              "type": "uint256"
            }
          ],
          "internalType": "struct AdvancedPGPKeyServer.TrustMetrics",
          "name": "",
          "type": "tuple"
        }
      ],
      "stateMutability": "view",
      "type": "function"
    },
    {
      "inputs": [
        {
          "internalType": "address",
          "name": "_keyOwner",
          "type": "address"
        }
      ],
      "name": "getTrustScore",
      "outputs": [
        {
          "internalType": "uint256",
          "name": "",
          "type": "uint256"
        }
      ],
      "stateMutability": "view",
      "type": "function"
    },
    {
      "inputs": [
        {
          "internalType": "address",
          "name": "",
          "type": "address"
        }
      ],
      "name": "keys",
      "outputs": [
        {
          "internalType": "string",
          "name": "publicKey",
          "type": "string"
        },
        {
          "internalType": "uint256",
          "name": "registrationTime",
          "type": "uint256"
        },
        {
          "internalType": "bool",
          "name": "isRevoked",
          "type": "bool"
        },
        {
          "internalType": "uint256",
          "name": "stake",
          "type": "uint256"
        }
      ],
      "stateMutability": "view",
      "type": "function"
    },
    {
      "inputs": [],
      "name": "minStake",
      "outputs": [
        {
          "internalType": "uint256",
          "name": "",
          "type": "uint256"
        }
      ],
      "stateMutability": "view",
      "type": "function"
    },
    {
      "inputs": [],
      "name": "owner",
      "outputs": [
        {
          "internalType": "address",
          "name": "",
          "type": "address"
        }
      ],
      "stateMutability": "view",
      "type": "function"
    },
    {
      "inputs": [],
      "name": "pause",
      "outputs": [],
      "stateMutability": "nonpayable",
      "type": "function"
    },
    {
      "inputs": [],
      "name": "paused",
      "outputs": [
        {
          "internalType": "bool",
          "name": "",
          "type": "bool"
        }
      ],
      "stateMutability": "view",
      "type": "function"
    },
    {
      "inputs": [
        {
          "internalType": "string",
          "name": "_publicKey",
          "type": "string"
        }
      ],
      "name": "registerKey",
      "outputs": [],
      "stateMutability": "payable",
      "type": "function"
    },
    {
      "inputs": [],
      "name": "renounceOwnership",
      "outputs": [],
      "stateMutability": "nonpayable",
      "type": "function"
    },
    {
      "inputs": [
        {
          "internalType": "address",
          "name": "_keyOwner",
          "type": "address"
        }
      ],
      "name": "revokeAttestation",
      "outputs": [],
      "stateMutability": "nonpayable",
      "type": "function"
    },
    {
      "inputs": [],
      "name": "revokeKey",
      "outputs": [],
      "stateMutability": "nonpayable",
      "type": "function"
    },
    {
      "inputs": [
        {
          "internalType": "address",
          "name": "newOwner",
          "type": "address"
        }
      ],
      "name": "transferOwnership",
      "outputs": [],
      "stateMutability": "nonpayable",
      "type": "function"
    },
    {
      "inputs": [],
      "name": "trustDecayPercentage",
      "outputs": [
        {
          "internalType": "uint256",
          "name": "",
          "type": "uint256"
        }
      ],
      "stateMutability": "view",
      "type": "function"
    },
    {
      "inputs": [],
      "name": "trustDecayPeriod",
      "outputs": [
        {
          "internalType": "uint256",
          "name": "",
          "type": "uint256"
        }
      ],
      "stateMutability": "view",
      "type": "function"
    },
    {
      "inputs": [
        {
          "internalType": "address",
          "name": "",
          "type": "address"
        }
      ],
      "name": "trustMetrics",
      "outputs": [
        {
          "internalType": "uint256",
          "name": "totalWeight",
          "type": "uint256"
        },
        {
          "internalType": "uint256",
          "name": "recentActivityScore",
          "type": "uint256"
        },
        {
          "internalType": "uint256",
          "name": "longevityScore",
          "type": "uint256"
        },
        {
          "internalType": "uint256",
          "name": "diversityScore",
          "type": "uint256"
        },
        {
          "internalType": "uint256",
          "name": "reputationScore",
          "type": "uint256"
        }
      ],
      "stateMutability": "view",
      "type": "function"
    },
    {
      "inputs": [
        {
          "internalType": "address",
          "name": "",
          "type": "address"
        }
      ],
      "name": "trustScores",
      "outputs": [
        {
          "internalType": "uint256",
          "name": "",
          "type": "uint256"
        }
      ],
      "stateMutability": "view",
      "type": "function"
    },
    {
      "inputs": [],
      "name": "unpause",
      "outputs": [],
      "stateMutability": "nonpayable",
      "type": "function"
    },
    {
      "inputs": [
        {
          "internalType": "uint256",
          "name": "_newMinStake",
          "type": "uint256"
        }
      ],
      "name": "updateMinStake",
      "outputs": [],
      "stateMutability": "nonpayable",
      "type": "function"
    },
    {
      "inputs": [
        {
          "internalType": "uint256",
          "name": "_newPeriod",
          "type": "uint256"
        },
        {
          "internalType": "uint256",
          "name": "_newPercentage",
          "type": "uint256"
        }
      ],
      "name": "updateTrustDecay",
      "outputs": [],
      "stateMutability": "nonpayable",
      "type": "function"
    },
    {
      "inputs": [],
      "name": "withdrawFunds",
      "outputs": [],
      "stateMutability": "nonpayable",
      "type": "function"
    },
    {
      "inputs": [],
      "name": "withdrawStake",
      "outputs": [],
      "stateMutability": "nonpayable",
      "type": "function"
    }
  ],
  "bytecode": "0x608060405267016345785d8a000060065562278d00600755600560085534801561002857600080fd5b506001600055338061005457604051631e4fbdf760e01b81526000600482015260240160405180910390fd5b61005d81610070565b506001805460ff60a01b191690556100c2565b600180546001600160a01b038381166001600160a01b0319831681179093556040519116919082907f8be0079c531659141344cd1fd0a4f28419497f9722a3daafe3b4186f6b6457e090600090a35050565b611c86806100d16000396000f3fe6080604052600436106101b75760003560e01c80638137e421116100ec578063a28fbaaf1161008a578063bed9d86111610064578063bed9d86114610538578063d93bbf281461054d578063f2fde38b14610564578063f7907c271461058457600080fd5b8063a28fbaaf1461050d578063a330c37d14610522578063a3ea156d1461050d57600080fd5b80638cdb442f116100c65780638cdb442f146104785780638da5cb5b146104985780639a452be4146104c05780639ab0dca5146104ed57600080fd5b80638137e421146104165780638456cb5914610436578063857cdbb81461044b57600080fd5b80635c975abb1161015957806369021a5f1161013357806369021a5f146103745780636d7d976c14610389578063715018a6146103eb57806374c8d3771461040057600080fd5b80635c975abb146102e45780635e09eea11461030e578063670d14b21461034457600080fd5b80633964e14b116101955780633964e14b146102295780633f4ba83a1461024957806340c35a881461025e5780634a80f2ba146102d157600080fd5b806312df0fc4146101bc57806324600fc3146101fc578063375b3c0a14610213575b600080fd5b3480156101c857600080fd5b506101e96101d7366004611864565b60046020526000908152604090205481565b6040519081526020015b60405180910390f35b34801561020857600080fd5b5061021161059a565b005b34801561021f57600080fd5b506101e960065481565b34801561023557600080fd5b50610211610244366004611864565b6105de565b34801561025557600080fd5b50610211610878565b34801561026a57600080fd5b506102a9610279366004611864565b60036020819052600091825260409091208054600182015460028301549383015460049093015491939092909185565b604080519586526020860194909452928401919091526060830152608082015260a0016101f3565b6102116102df3660046118aa565b61088a565b3480156102f057600080fd5b50600154600160a01b900460ff1660405190151581526020016101f3565b34801561031a57600080fd5b506101e9610329366004611864565b6001600160a01b031660009081526004602052604090205490565b34801561035057600080fd5b5061036461035f366004611864565b6109bb565b6040516101f394939291906119a1565b34801561038057600080fd5b50610211610a71565b34801561039557600080fd5b506103a96103a4366004611864565b610b75565b6040516101f39190600060a082019050825182526020830151602083015260408301516040830152606083015160608301526080830151608083015292915050565b3480156103f757600080fd5b50610211610bfe565b34801561040c57600080fd5b506101e96103e881565b34801561042257600080fd5b506102116104313660046119d0565b610c10565b34801561044257600080fd5b50610211610d02565b34801561045757600080fd5b5061046b610466366004611864565b610d12565b6040516101f391906119f2565b34801561048457600080fd5b50610211610493366004611a05565b610dfa565b3480156104a457600080fd5b506001546040516001600160a01b0390911681526020016101f3565b3480156104cc57600080fd5b506101e96104db366004611864565b60056020526000908152604090205481565b3480156104f957600080fd5b50610211610508366004611864565b610e3d565b34801561051957600080fd5b506101e9606481565b34801561052e57600080fd5b506101e960075481565b34801561054457600080fd5b50610211610ff8565b34801561055957600080fd5b506101e96201518081565b34801561057057600080fd5b5061021161057f366004611864565b6111b4565b34801561059057600080fd5b506101e960085481565b6105a26111ef565b6001546040516001600160a01b03909116904780156108fc02916000818181858888f193505050501580156105db573d6000803e3d6000fd5b50565b6001600160a01b038116600090815260026020526040812080548392919061060590611a1e565b90501161064e5760405162461bcd60e51b815260206004820152601260248201527112d95e481b9bdd081c9959da5cdd195c995960721b60448201526064015b60405180910390fd5b6001600160a01b0381166000908152600260208190526040909120015460ff161561068b5760405162461bcd60e51b815260040161064590611a58565b61069361121c565b61069b611246565b6001600160a01b03821633036106eb5760405162461bcd60e51b815260206004820152601560248201527443616e6e6f7420617474657374206f776e206b657960581b6044820152606401610645565b6001600160a01b0382166000908152600260209081526040808320338452600401909152902054610720906201518090611a96565b42101561076f5760405162461bcd60e51b815260206004820152601760248201527f4174746573746174696f6e206f6e20636f6f6c646f776e0000000000000000006044820152606401610645565b600061077a33611271565b60408051606081018252428152602080820184815260008385018181526001600160a01b038a168083526002808652878420338086526004820188528986209851895595516001808a0191909155935197909101805460ff191697151597909717909655600595860180549283018155835284832090910180546001600160a01b03191690931790925590815291905290812080549293509061081c83611aaf565b919050555061082a836112a9565b610833836115a1565b6040516001600160a01b0384169033907f15aa99ffc89a72fd4afe6d624c4f5663ea71125418e7a50dcba511daefc818ed90600090a3506108746001600055565b5050565b6108806111ef565b610888611750565b565b61089261121c565b61089a611246565b33600090815260026020526040902080546108b490611a1e565b1590506108fc5760405162461bcd60e51b815260206004820152601660248201527512d95e48185b1c9958591e481c9959da5cdd195c995960521b6044820152606401610645565b6006543410156109435760405162461bcd60e51b8152602060048201526012602482015271496e73756666696369656e74207374616b6560701b6044820152606401610645565b33600090815260026020526040902061095c8282611b17565b50336000818152600260205260409081902042600182015534600390910155517ff2f2a79075cf529b3af4268b6b23a4d84fb14a9e28480515f2e7e01d12ca6172906109a99084906119f2565b60405180910390a26105db6001600055565b6002602052600090815260409020805481906109d690611a1e565b80601f0160208091040260200160405190810160405280929190818152602001828054610a0290611a1e565b8015610a4f5780601f10610a2457610100808354040283529160200191610a4f565b820191906000526020600020905b815481529060010190602001808311610a3257829003601f168201915b50505050600183015460028401546003909401549293909260ff909116915084565b3360008181526002602052604081208054610a8b90611a1e565b905011610acf5760405162461bcd60e51b815260206004820152601260248201527112d95e481b9bdd081c9959da5cdd195c995960721b6044820152606401610645565b6001600160a01b0381166000908152600260208190526040909120015460ff1615610b0c5760405162461bcd60e51b815260040161064590611a58565b610b1461121c565b610b1c611246565b336000818152600260208181526040808420909201805460ff1916600117905560049052808220829055517f2863dd5cdaeee3db3572cb06d2252df0b2ed5fd16b2fe921c187ba89519247d39190a26105db6001600055565b610ba76040518060a0016040528060008152602001600081526020016000815260200160008152602001600081525090565b506001600160a01b0316600090815260036020818152604092839020835160a08101855281548152600182015492810192909252600281015493820193909352908201546060820152600490910154608082015290565b610c066111ef565b61088860006117a5565b610c186111ef565b60008211610c5f5760405162461bcd60e51b8152602060048201526014602482015273125b9d985b1a5908191958d85e481c195c9a5bd960621b6044820152606401610645565b6064811115610cbb5760405162461bcd60e51b815260206004820152602260248201527f44656361792070657263656e746167652063616e6e6f74206578636565642031604482015261030360f41b6064820152608401610645565b6007829055600881905560408051838152602081018390527fb4d1d08226a0457a6b10795eea8dbfac181279f2ad146290bdfb7377a9d2b1b5910160405180910390a15050565b610d0a6111ef565b6108886117f7565b6001600160a01b0381166000908152600260208190526040909120015460609060ff1615610d525760405162461bcd60e51b815260040161064590611a58565b6001600160a01b03821660009081526002602052604090208054610d7590611a1e565b80601f0160208091040260200160405190810160405280929190818152602001828054610da190611a1e565b8015610dee5780601f10610dc357610100808354040283529160200191610dee565b820191906000526020600020905b815481529060010190602001808311610dd157829003601f168201915b50505050509050919050565b610e026111ef565b60068190556040518181527f47ab46f2c8d4258304a2f5551c1cbdb6981be49631365d1ba7191288a73f39ef9060200160405180910390a150565b610e4561121c565b610e4d611246565b6001600160a01b0381166000908152600260209081526040808320338452600401909152902054610ec05760405162461bcd60e51b815260206004820152601860248201527f4e6f206174746573746174696f6e20746f207265766f6b6500000000000000006044820152606401610645565b6001600160a01b0381166000908152600260208181526040808420338552600401909152909120015460ff1615610f395760405162461bcd60e51b815260206004820152601b60248201527f4174746573746174696f6e20616c7265616479207265766f6b656400000000006044820152606401610645565b6001600160a01b03811660008181526002602081815260408084203385526004018252808420909201805460ff191660011790559282526005909252205415610fa6576001600160a01b0381166000908152600560205260408120805491610fa083611bd7565b91905055505b610faf816112a9565b610fb8816115a1565b6040516001600160a01b0382169033907f44db7dd4b6358b875795316c769b036d3566b0ee441dfee2f7f2bc858b67a3a090600090a36105db6001600055565b61100061121c565b611008611246565b336000908152600260208190526040909120015460ff166110805760405162461bcd60e51b815260206004820152602c60248201527f43616e206f6e6c79207769746864726177207374616b65206166746572206b6560448201526b3c903932bb37b1b0ba34b7b760a11b6064820152608401610645565b33600090815260026020526040902060030154806110d75760405162461bcd60e51b81526020600482015260146024820152734e6f207374616b6520746f20776974686472617760601b6044820152606401610645565b336000818152600260205260408082206003018290555190919083908381818185875af1925050503d806000811461112b576040519150601f19603f3d011682016040523d82523d6000602084013e611130565b606091505b50509050806111735760405162461bcd60e51b815260206004820152600f60248201526e151c985b9cd9995c8819985a5b1959608a1b6044820152606401610645565b60405182815233907f8108595eb6bad3acefa9da467d90cc2217686d5c5ac85460f8b7849c840645fc9060200160405180910390a250506108886001600055565b6111bc6111ef565b6001600160a01b0381166111e657604051631e4fbdf760e01b815260006004820152602401610645565b6105db816117a5565b6001546001600160a01b031633146108885760405163118cdaa760e01b8152336004820152602401610645565b60026000540361123f57604051633ee5aeb560e01b815260040160405180910390fd5b6002600055565b600154600160a01b900460ff16156108885760405163d93c066560e01b815260040160405180910390fd5b6001600160a01b0381166000908152600460205260408120546032611297600a83611bee565b6112a19082611c10565b949350505050565b6001600160a01b0381166000908152600360208190526040808320838155600181018490559182018390556004820183905580516064808252610ca08201909252919291829181602001602082028036833701905050905060005b6001600160a01b0385166000908152600260205260409020600501548110801561132e5750606481105b156114ee576001600160a01b038516600090815260026020526040812060050180548390811061136057611360611c23565b60009182526020808320909101546001600160a01b038981168452600280845260408086209290931680865260049092018452938290208251606081018452815481526001820154948101949094529093015460ff161515908201819052919250906114d95780602001518660000160008282546113de9190611a96565b9091555050805160009062015180906113f79042611c10565b6114019190611bee565b9050601e8110156114305761141781601e611c10565b87600101600082825461142a9190611a96565b90915550505b600160005b8781101561148a57846001600160a01b031687828151811061145957611459611c23565b60200260200101516001600160a01b031603611478576000915061148a565b8061148281611aaf565b915050611435565b508080156114985750606487105b156114d657838688815181106114b0576114b0611c23565b6001600160a01b0390921660209283029190910190910152866114d281611aaf565b9750505b50505b505080806114e690611aaf565b915050611304565b506114fa82600a611c39565b60038401556001600160a01b038416600090815260026020526040812060010154620151809061152a9042611c10565b6115349190611bee565b905061016d811161155c5761016d61154d826064611c39565b6115579190611bee565b61155f565b60645b600285015561156d856115a1565b6001600160a01b03851660009081526004602052604090205461159290600a90611bee565b84600401819055505050505050565b6001600160a01b0381166000908152600360208181526040808420815160a081018352815481526001820154938101849052600280830154938201849052948201546060820181905260049092015460808201819052909594909391929161160891611c39565b85516116149190611a96565b61161e9190611a96565b6116289190611a96565b6116329190611a96565b905060006103e882116116455781611649565b6103e85b6001600160a01b0385166000908152600260205260408120600101549192506116728242611c10565b90506000600754826116849190611bee565b905060005b818110156116ca57606460085460646116a29190611c10565b6116ac9087611c39565b6116b69190611bee565b9450806116c281611aaf565b915050611689565b506001600160a01b0387166000908152600560205260409020546116ef5760006116f1565b835b6001600160a01b038816600081815260046020526040908190208390555190917f16bf5e9c27e8fb3837dca08521258eaf9f8e21bb809d3dd7a1a4a00093c99a449161173f91815260200190565b60405180910390a250505050505050565b61175861183a565b6001805460ff60a01b191690557f5db9ee0a495bf2e6ff9c91a7834c1ba4fdd244a5e8aa4e537bd38aeae4b073aa335b6040516001600160a01b03909116815260200160405180910390a1565b600180546001600160a01b038381166001600160a01b0319831681179093556040519116919082907f8be0079c531659141344cd1fd0a4f28419497f9722a3daafe3b4186f6b6457e090600090a35050565b6117ff611246565b6001805460ff60a01b1916600160a01b1790557f62e78cea01bee320cd4e420270b5ea74000d11b0c9f74754ebdbfc544b05a2586117883390565b600154600160a01b900460ff1661088857604051638dfc202b60e01b815260040160405180910390fd5b60006020828403121561187657600080fd5b81356001600160a01b038116811461188d57600080fd5b9392505050565b634e487b7160e01b600052604160045260246000fd5b6000602082840312156118bc57600080fd5b813567ffffffffffffffff808211156118d457600080fd5b818401915084601f8301126118e857600080fd5b8135818111156118fa576118fa611894565b604051601f8201601f19908116603f0116810190838211818310171561192257611922611894565b8160405282815287602084870101111561193b57600080fd5b826020860160208301376000928101602001929092525095945050505050565b6000815180845260005b8181101561198157602081850181015186830182015201611965565b506000602082860101526020601f19601f83011685010191505092915050565b6080815260006119b4608083018761195b565b6020830195909552509115156040830152606090910152919050565b600080604083850312156119e357600080fd5b50508035926020909101359150565b60208152600061188d602083018461195b565b600060208284031215611a1757600080fd5b5035919050565b600181811c90821680611a3257607f821691505b602082108103611a5257634e487b7160e01b600052602260045260246000fd5b50919050565b6020808252600e908201526d12d95e481a5cc81c995d9bdad95960921b604082015260600190565b634e487b7160e01b600052601160045260246000fd5b80820180821115611aa957611aa9611a80565b92915050565b600060018201611ac157611ac1611a80565b5060010190565b601f821115611b1257600081815260208120601f850160051c81016020861015611aef5750805b601f850160051c820191505b81811015611b0e57828155600101611afb565b5050505b505050565b815167ffffffffffffffff811115611b3157611b31611894565b611b4581611b3f8454611a1e565b84611ac8565b602080601f831160018114611b7a5760008415611b625750858301515b600019600386901b1c1916600185901b178555611b0e565b600085815260208120601f198616915b82811015611ba957888601518255948401946001909101908401611b8a565b5085821015611bc75787850151600019600388901b60f8161c191681555b5050505050600190811b01905550565b600081611be657611be6611a80565b506000190190565b600082611c0b57634e487b7160e01b600052601260045260246000fd5b500490565b81810381811115611aa957611aa9611a80565b634e487b7160e01b600052603260045260246000fd5b8082028115828204841417611aa957611aa9611a8056fea264697066735822122027fd4e1572b5e981a645cef468a8a4c52d24cba9c42ff477d503b8ea0219150064736f6c63430008140033",
  "linkReferences": {},
  "deployedLinkReferences": {}
}